{
  "_format": "hh-sol-artifact-1",
  "contractName": "SubscriptionManager",
  "sourceName": "contracts/SubscriptionManager.sol",
  "abi": [
    {
      "inputs": [
        {
          "internalType": "address",
          "name": "_endpoint",
          "type": "address"
        }
      ],
      "stateMutability": "nonpayable",
      "type": "constructor"
    },
    {
      "inputs": [
        {
          "internalType": "address",
          "name": "target",
          "type": "address"
        }
      ],
      "name": "AddressEmptyCode",
      "type": "error"
    },
    {
      "inputs": [
        {
          "internalType": "address",
          "name": "account",
          "type": "address"
        }
      ],
      "name": "AddressInsufficientBalance",
      "type": "error"
    },
    {
      "inputs": [],
      "name": "FailedInnerCall",
      "type": "error"
    },
    {
      "inputs": [],
      "name": "InvalidDelegate",
      "type": "error"
    },
    {
      "inputs": [],
      "name": "InvalidEndpointCall",
      "type": "error"
    },
    {
      "inputs": [
        {
          "internalType": "uint16",
          "name": "optionType",
          "type": "uint16"
        }
      ],
      "name": "InvalidOptionType",
      "type": "error"
    },
    {
      "inputs": [],
      "name": "LzTokenUnavailable",
      "type": "error"
    },
    {
      "inputs": [
        {
          "internalType": "uint32",
          "name": "eid",
          "type": "uint32"
        }
      ],
      "name": "NoPeer",
      "type": "error"
    },
    {
      "inputs": [
        {
          "internalType": "uint256",
          "name": "msgValue",
          "type": "uint256"
        }
      ],
      "name": "NotEnoughNative",
      "type": "error"
    },
    {
      "inputs": [
        {
          "internalType": "address",
          "name": "addr",
          "type": "address"
        }
      ],
      "name": "OnlyEndpoint",
      "type": "error"
    },
    {
      "inputs": [
        {
          "internalType": "uint32",
          "name": "eid",
          "type": "uint32"
        },
        {
          "internalType": "bytes32",
          "name": "sender",
          "type": "bytes32"
        }
      ],
      "name": "OnlyPeer",
      "type": "error"
    },
    {
      "inputs": [
        {
          "internalType": "address",
          "name": "owner",
          "type": "address"
        }
      ],
      "name": "OwnableInvalidOwner",
      "type": "error"
    },
    {
      "inputs": [
        {
          "internalType": "address",
          "name": "account",
          "type": "address"
        }
      ],
      "name": "OwnableUnauthorizedAccount",
      "type": "error"
    },
    {
      "inputs": [
        {
          "internalType": "uint8",
          "name": "bits",
          "type": "uint8"
        },
        {
          "internalType": "uint256",
          "name": "value",
          "type": "uint256"
        }
      ],
      "name": "SafeCastOverflowedUintDowncast",
      "type": "error"
    },
    {
      "inputs": [
        {
          "internalType": "address",
          "name": "token",
          "type": "address"
        }
      ],
      "name": "SafeERC20FailedOperation",
      "type": "error"
    },
    {
      "inputs": [],
      "name": "SubscriptionManager_LowAmount",
      "type": "error"
    },
    {
      "inputs": [],
      "name": "SubscriptionManager_LowInterval",
      "type": "error"
    },
    {
      "inputs": [],
      "name": "SubscriptionManager_OnlySubcriber",
      "type": "error"
    },
    {
      "inputs": [],
      "name": "SubscriptionManager_PaymentNotDueYet",
      "type": "error"
    },
    {
      "anonymous": false,
      "inputs": [
        {
          "indexed": false,
          "internalType": "uint256",
          "name": "subscriptionId",
          "type": "uint256"
        },
        {
          "indexed": false,
          "internalType": "uint32",
          "name": "senderEid",
          "type": "uint32"
        },
        {
          "indexed": false,
          "internalType": "bytes32",
          "name": "sender",
          "type": "bytes32"
        },
        {
          "indexed": false,
          "internalType": "uint64",
          "name": "nonce",
          "type": "uint64"
        }
      ],
      "name": "MessageReceived",
      "type": "event"
    },
    {
      "anonymous": false,
      "inputs": [
        {
          "indexed": false,
          "internalType": "uint256",
          "name": "subscriptionId",
          "type": "uint256"
        },
        {
          "indexed": false,
          "internalType": "address",
          "name": "user",
          "type": "address"
        },
        {
          "indexed": false,
          "internalType": "address",
          "name": "serviceProvider",
          "type": "address"
        },
        {
          "indexed": false,
          "internalType": "uint256",
          "name": "amount",
          "type": "uint256"
        },
        {
          "indexed": false,
          "internalType": "uint32",
          "name": "dstEid",
          "type": "uint32"
        }
      ],
      "name": "MessageSent",
      "type": "event"
    },
    {
      "anonymous": false,
      "inputs": [
        {
          "indexed": true,
          "internalType": "address",
          "name": "previousOwner",
          "type": "address"
        },
        {
          "indexed": true,
          "internalType": "address",
          "name": "newOwner",
          "type": "address"
        }
      ],
      "name": "OwnershipTransferred",
      "type": "event"
    },
    {
      "anonymous": false,
      "inputs": [
        {
          "indexed": false,
          "internalType": "uint256",
          "name": "subscriptionId",
          "type": "uint256"
        },
        {
          "indexed": false,
          "internalType": "uint256",
          "name": "nextPaymentDate",
          "type": "uint256"
        }
      ],
      "name": "PaymentFinished",
      "type": "event"
    },
    {
      "anonymous": false,
      "inputs": [
        {
          "indexed": false,
          "internalType": "uint256",
          "name": "subscriptionId",
          "type": "uint256"
        },
        {
          "indexed": false,
          "internalType": "address",
          "name": "user",
          "type": "address"
        },
        {
          "indexed": false,
          "internalType": "address",
          "name": "serviceProvider",
          "type": "address"
        },
        {
          "indexed": false,
          "internalType": "uint256",
          "name": "amount",
          "type": "uint256"
        }
      ],
      "name": "PaymentInitiated",
      "type": "event"
    },
    {
      "anonymous": false,
      "inputs": [
        {
          "indexed": false,
          "internalType": "uint32",
          "name": "eid",
          "type": "uint32"
        },
        {
          "indexed": false,
          "internalType": "bytes32",
          "name": "peer",
          "type": "bytes32"
        }
      ],
      "name": "PeerSet",
      "type": "event"
    },
    {
      "anonymous": false,
      "inputs": [
        {
          "indexed": false,
          "internalType": "uint256",
          "name": "subscriptionId",
          "type": "uint256"
        },
        {
          "indexed": false,
          "internalType": "address",
          "name": "user",
          "type": "address"
        },
        {
          "indexed": false,
          "internalType": "address",
          "name": "serviceProvider",
          "type": "address"
        },
        {
          "indexed": false,
          "internalType": "uint256",
          "name": "amount",
          "type": "uint256"
        },
        {
          "indexed": false,
          "internalType": "uint256",
          "name": "interval",
          "type": "uint256"
        },
        {
          "indexed": false,
          "internalType": "uint256",
          "name": "nextPaymentDate",
          "type": "uint256"
        }
      ],
      "name": "SubscriptionCreated",
      "type": "event"
    },
    {
      "inputs": [],
      "name": "BASE_SEPOLIA_EID",
      "outputs": [
        {
          "internalType": "uint32",
          "name": "",
          "type": "uint32"
        }
      ],
      "stateMutability": "view",
      "type": "function"
    },
    {
      "inputs": [
        {
          "internalType": "address",
          "name": "_addr",
          "type": "address"
        }
      ],
      "name": "addressToBytes32",
      "outputs": [
        {
          "internalType": "bytes32",
          "name": "",
          "type": "bytes32"
        }
      ],
      "stateMutability": "pure",
      "type": "function"
    },
    {
      "inputs": [
        {
          "components": [
            {
              "internalType": "uint32",
              "name": "srcEid",
              "type": "uint32"
            },
            {
              "internalType": "bytes32",
              "name": "sender",
              "type": "bytes32"
            },
            {
              "internalType": "uint64",
              "name": "nonce",
              "type": "uint64"
            }
          ],
          "internalType": "struct Origin",
          "name": "origin",
          "type": "tuple"
        }
      ],
      "name": "allowInitializePath",
      "outputs": [
        {
          "internalType": "bool",
          "name": "",
          "type": "bool"
        }
      ],
      "stateMutability": "view",
      "type": "function"
    },
    {
      "inputs": [
        {
          "internalType": "bytes32",
          "name": "_b",
          "type": "bytes32"
        }
      ],
      "name": "bytes32ToAddress",
      "outputs": [
        {
          "internalType": "address",
          "name": "",
          "type": "address"
        }
      ],
      "stateMutability": "pure",
      "type": "function"
    },
    {
      "inputs": [
        {
          "internalType": "address",
          "name": "serviceProvider",
          "type": "address"
        },
        {
          "internalType": "uint256",
          "name": "amount",
          "type": "uint256"
        },
        {
          "internalType": "uint256",
          "name": "interval",
          "type": "uint256"
        }
      ],
      "name": "createSubscription",
      "outputs": [
        {
          "internalType": "uint256",
          "name": "",
          "type": "uint256"
        }
      ],
      "stateMutability": "nonpayable",
      "type": "function"
    },
    {
      "inputs": [],
      "name": "endpoint",
      "outputs": [
        {
          "internalType": "contract ILayerZeroEndpointV2",
          "name": "",
          "type": "address"
        }
      ],
      "stateMutability": "view",
      "type": "function"
    },
    {
      "inputs": [
        {
          "internalType": "address",
          "name": "user",
          "type": "address"
        }
      ],
      "name": "getUserSubscriptions",
      "outputs": [
        {
          "internalType": "uint256[]",
          "name": "",
          "type": "uint256[]"
        }
      ],
      "stateMutability": "view",
      "type": "function"
    },
    {
      "inputs": [
        {
          "components": [
            {
              "internalType": "uint32",
              "name": "srcEid",
              "type": "uint32"
            },
            {
              "internalType": "bytes32",
              "name": "sender",
              "type": "bytes32"
            },
            {
              "internalType": "uint64",
              "name": "nonce",
              "type": "uint64"
            }
          ],
          "internalType": "struct Origin",
          "name": "",
          "type": "tuple"
        },
        {
          "internalType": "bytes",
          "name": "",
          "type": "bytes"
        },
        {
          "internalType": "address",
          "name": "_sender",
          "type": "address"
        }
      ],
      "name": "isComposeMsgSender",
      "outputs": [
        {
          "internalType": "bool",
          "name": "",
          "type": "bool"
        }
      ],
      "stateMutability": "view",
      "type": "function"
    },
    {
      "inputs": [
        {
          "components": [
            {
              "internalType": "uint32",
              "name": "srcEid",
              "type": "uint32"
            },
            {
              "internalType": "bytes32",
              "name": "sender",
              "type": "bytes32"
            },
            {
              "internalType": "uint64",
              "name": "nonce",
              "type": "uint64"
            }
          ],
          "internalType": "struct Origin",
          "name": "_origin",
          "type": "tuple"
        },
        {
          "internalType": "bytes32",
          "name": "_guid",
          "type": "bytes32"
        },
        {
          "internalType": "bytes",
          "name": "_message",
          "type": "bytes"
        },
        {
          "internalType": "address",
          "name": "_executor",
          "type": "address"
        },
        {
          "internalType": "bytes",
          "name": "_extraData",
          "type": "bytes"
        }
      ],
      "name": "lzReceive",
      "outputs": [],
      "stateMutability": "payable",
      "type": "function"
    },
    {
      "inputs": [
        {
          "internalType": "uint256",
          "name": "subscriptionId",
          "type": "uint256"
        }
      ],
      "name": "makePayment",
      "outputs": [],
      "stateMutability": "payable",
      "type": "function"
    },
    {
      "inputs": [
        {
          "internalType": "uint32",
          "name": "",
          "type": "uint32"
        },
        {
          "internalType": "bytes32",
          "name": "",
          "type": "bytes32"
        }
      ],
      "name": "nextNonce",
      "outputs": [
        {
          "internalType": "uint64",
          "name": "nonce",
          "type": "uint64"
        }
      ],
      "stateMutability": "view",
      "type": "function"
    },
    {
      "inputs": [],
      "name": "oAppVersion",
      "outputs": [
        {
          "internalType": "uint64",
          "name": "senderVersion",
          "type": "uint64"
        },
        {
          "internalType": "uint64",
          "name": "receiverVersion",
          "type": "uint64"
        }
      ],
      "stateMutability": "pure",
      "type": "function"
    },
    {
      "inputs": [],
      "name": "owner",
      "outputs": [
        {
          "internalType": "address",
          "name": "",
          "type": "address"
        }
      ],
      "stateMutability": "view",
      "type": "function"
    },
    {
      "inputs": [
        {
          "internalType": "uint32",
          "name": "eid",
          "type": "uint32"
        }
      ],
      "name": "peers",
      "outputs": [
        {
          "internalType": "bytes32",
          "name": "peer",
          "type": "bytes32"
        }
      ],
      "stateMutability": "view",
      "type": "function"
    },
    {
      "inputs": [
        {
          "internalType": "uint256",
          "name": "subscriptionId",
          "type": "uint256"
        }
      ],
      "name": "quote",
      "outputs": [
        {
          "components": [
            {
              "internalType": "uint256",
              "name": "nativeFee",
              "type": "uint256"
            },
            {
              "internalType": "uint256",
              "name": "lzTokenFee",
              "type": "uint256"
            }
          ],
          "internalType": "struct MessagingFee",
          "name": "fee",
          "type": "tuple"
        }
      ],
      "stateMutability": "view",
      "type": "function"
    },
    {
      "inputs": [],
      "name": "renounceOwnership",
      "outputs": [],
      "stateMutability": "nonpayable",
      "type": "function"
    },
    {
      "inputs": [
        {
          "internalType": "address",
          "name": "_delegate",
          "type": "address"
        }
      ],
      "name": "setDelegate",
      "outputs": [],
      "stateMutability": "nonpayable",
      "type": "function"
    },
    {
      "inputs": [
        {
          "internalType": "uint32",
          "name": "_eid",
          "type": "uint32"
        },
        {
          "internalType": "bytes32",
          "name": "_peer",
          "type": "bytes32"
        }
      ],
      "name": "setPeer",
      "outputs": [],
      "stateMutability": "nonpayable",
      "type": "function"
    },
    {
      "inputs": [],
      "name": "subscriptionCounter",
      "outputs": [
        {
          "internalType": "uint256",
          "name": "",
          "type": "uint256"
        }
      ],
      "stateMutability": "view",
      "type": "function"
    },
    {
      "inputs": [
        {
          "internalType": "uint256",
          "name": "",
          "type": "uint256"
        }
      ],
      "name": "subscriptions",
      "outputs": [
        {
          "internalType": "address",
          "name": "user",
          "type": "address"
        },
        {
          "internalType": "address",
          "name": "serviceProvider",
          "type": "address"
        },
        {
          "internalType": "uint256",
          "name": "amount",
          "type": "uint256"
        },
        {
          "internalType": "uint256",
          "name": "interval",
          "type": "uint256"
        },
        {
          "internalType": "uint256",
          "name": "nextPaymentDate",
          "type": "uint256"
        }
      ],
      "stateMutability": "view",
      "type": "function"
    },
    {
      "inputs": [
        {
          "internalType": "address",
          "name": "newOwner",
          "type": "address"
        }
      ],
      "name": "transferOwnership",
      "outputs": [],
      "stateMutability": "nonpayable",
      "type": "function"
    },
    {
      "inputs": [
        {
          "internalType": "address",
          "name": "",
          "type": "address"
        },
        {
          "internalType": "uint256",
          "name": "",
          "type": "uint256"
        }
      ],
      "name": "userSubscriptions",
      "outputs": [
        {
          "internalType": "uint256",
          "name": "",
          "type": "uint256"
        }
      ],
      "stateMutability": "view",
      "type": "function"
    }
  ],
  "bytecode": "0x60a0604052346200011557602062001ac08038038091620000208262000142565b60a03912620001155760a0516001600160a01b0381169081900362000115576200004a336200036e565b60805233156200011a576080516001600160a01b0316803b15620001155760405163ca5eb5e160e01b8152336004820152906000908290602490829084905af180156200010f57620000f1575b620000b5620000af620000a9620003d4565b620003f3565b6200025b565b6040516115109081620005b08239608051818181610303015281816103c001528181610816015281816109e501528181610b910152610f9a0152f35b806200010162000108926200016f565b8062000356565b3862000097565b62000362565b600080fd5b604051632d618d8160e21b8152600490fd5b634e487b7160e01b600052604160045260246000fd5b60a0601f91909101601f19168101906001600160401b038211908210176200016957604052565b6200012c565b6001600160401b0381116200016957604052565b604081019081106001600160401b038211176200016957604052565b601f909101601f19168101906001600160401b038211908210176200016957604052565b90600182811c92168015620001f5575b6020831014620001df57565b634e487b7160e01b600052602260045260246000fd5b91607f1691620001d3565b601f81116200020d575050565b60009060026000526020600020906020601f850160051c8301941062000250575b601f0160051c01915b8281106200024457505050565b81815560010162000237565b90925082906200022e565b80519091906001600160401b0381116200016957620002878162000281600254620001c3565b62000200565b602080601f8311600114620002ce57508190620002bd9394600092620002c2575b50508160011b916000199060031b1c19161790565b600255565b015190503880620002a8565b6002600052601f198316949091907f405787fa12a823e0f2b7631cc41b3ba8828b3321ca811111fa75cd3aa3bb5ace926000905b8782106200033d57505083600195961062000323575b505050811b01600255565b015160001960f88460031b161c1916905538808062000318565b8060018596829496860151815501950193019062000302565b60009103126200011557565b6040513d6000823e3d90fd5b6001600160a01b03908116908115620003bb576000548260018060a01b0319821617600055167f8be0079c531659141344cd1fd0a4f28419497f9722a3daafe3b4186f6b6457e0600080a3565b604051631e4fbdf760e01b815260006004820152602490fd5b604051600360f01b602082015260028152620003f08162000183565b90565b61ffff906003826200040583620004eb565b1603620004c75760405161b71b60861b602082015260108152906200042a8262000183565b6003836200043883620004eb565b1603620004a3578151838111620004845783166001019283116200047e576200046f620003f092604051948593602085016200056e565b03601f1981018352826200019f565b620004d5565b604490604051906306dfcc6560e41b8252601060048301526024820152fd5b82620004b1602492620004eb565b604051633a51740d60e01b815291166004820152fd5b90620004b1602492620004eb565b634e487b7160e01b600052601160045260246000fd5b6002815110620004fc576002015190565b60405162461bcd60e51b815260206004820152601460248201527f746f55696e7431365f6f75744f66426f756e64730000000000000000000000006044820152606490fd5b9081519160005b8381106200055a575050016000815290565b806020809284010151818501520162000548565b9162000582620003f0949360049362000541565b600160f81b80825260f09290921b6001600160f01b0319166001820152600381019190915201906200054156fe608080604052600436101561001357600080fd5b600090813560e01c90816313137d6514610f305750806317442b7014610f0e5780632d5bbf6014610ead5780632e6ca58814610dff5780633400288b14610d905780635114cb521461086d5780635ced058e146108455780635e280f111461080057806366829b0e146107e3578063715018a6146107895780637d25a05e1461076357806382413eac1461070557806382c947b7146106d85780638a2405a8146105205780638da5cb5b146104f9578063903a8298146104db578063bb0b6a53146104a6578063c95d6edc14610450578063ca5eb5e114610394578063ed1bd76c146101de578063f2fde38b1461014e5763ff7bd03d1461011357600080fd5b3461014b57606036600319011261014b57604060209163ffffffff6101366111af565b16815260018352205460405190602435148152f35b80fd5b503461014b57602036600319011261014b57610168611158565b610170611375565b6001600160a01b039081169081156101c557600054826bffffffffffffffffffffffff60a01b821617600055167f8be0079c531659141344cd1fd0a4f28419497f9722a3daafe3b4186f6b6457e0600080a380f35b604051631e4fbdf760e01b815260048101849052602490fd5b503461014b57602080600319360112610390576102ff9060406004356000838351610208816111f4565b82815201528085526004835281852061029b835192610226846111c2565b82546001600160a01b0390811680865260018501548216888701819052600286015488880181905260038701546060808a01919091526004909701546080988901528851808b01958652602086019390935260408501919091529483019490945292938491015b03601f19810184528361122c565b6102a361124e565b60008585516102b1816111f4565b82815201526102be61133b565b928451936102cb856111c2565b619d3585528685015284840152606083015285608083015282518080968194631bb8518b60e31b8352309060048401611409565b03917f0000000000000000000000000000000000000000000000000000000000000000165afa918215610385578392610345575b60408051845181528385015181850152f35b90915060403d60401161037e575b61035d818361122c565b81019260408285031261014b5750604092610377916113a1565b9038610333565b503d610353565b6040513d85823e3d90fd5b5080fd5b503461014b57602036600319011261014b576103ae611158565b6103b6611375565b6001600160a01b037f0000000000000000000000000000000000000000000000000000000000000000811691839190833b1561044c5760249083604051958694859363ca5eb5e160e01b85521660048401525af1801561044157610418575080f35b67ffffffffffffffff811161042d5760405280f35b634e487b7160e01b82526041600452602482fd5b6040513d84823e3d90fd5b8280fd5b503461014b57604036600319011261014b5761046a611158565b6001600160a01b031681526005602052604081208054602435929083101561014b5760206104988484611181565b90546040519160031b1c8152f35b503461014b57602036600319011261014b57604060209163ffffffff6104ca61116e565b168152600183522054604051908152f35b503461014b578060031936011261014b576020600354604051908152f35b503461014b578060031936011261014b57546040516001600160a01b039091168152602090f35b503461014b57606036600319011261014b5761053a611158565b906024356044359181156106c65782156106b45760035492600019948585146106a05760018501600355604051610570816111c2565b338152602081019660018060a01b03809316885260408201958652606082019384526080820194428652878152600460205260408120848451166bffffffffffffffffffffffff60a01b90818354161782556001820190868c5116908254161790558751600282015585516003820155600487519101553381526005602052604081208054916801000000000000000083101561068c57509360c0969360209a9693610645847ff44309393cb48da6d217a0cd79f75462f8564ede11a585605e54c3deb20486cc9b9860018697018155611181565b819291549060031b918d831b921b1916179055511694511692519051915192604051948886528986015260408501526060840152608083015260a0820152a1604051908152f35b634e487b7160e01b81526041600452602490fd5b634e487b7160e01b83526011600452602483fd5b604051636426fb2f60e01b8152600490fd5b60405163afc8386f60e01b8152600490fd5b503461014b57602036600319011261014b5760206001600160a01b036106fc611158565b16604051908152f35b503461014b57366003190160a081126103905760601361014b5760643567ffffffffffffffff81116103905761073f903690600401611125565b50506084356001600160a01b03811690819003610390576020906040519030148152f35b503461014b57604036600319011261014b5760209061078061116e565b50604051908152f35b503461014b578060031936011261014b576107a2611375565b80546001600160a01b03198116825581906001600160a01b03167f8be0079c531659141344cd1fd0a4f28419497f9722a3daafe3b4186f6b6457e08280a380f35b503461014b578060031936011261014b576020604051619d358152f35b503461014b578060031936011261014b576040517f00000000000000000000000000000000000000000000000000000000000000006001600160a01b03168152602090f35b503461014b57602036600319011261014b576040516004356001600160a01b03168152602090f35b50602036600319011261014b5760043580825260046020526040822060405190610896826111c2565b80546001600160a01b0390811680845260018301549091166020840152600282015460408401526003820154606084015260049091015460808301908152903303610d7e57514210610d6c57805160208083015160408085015181519384018790526001600160a01b0394851691840191909152921660608201526080810191909152906109278260a0810161028d565b60405191610934836111f4565b348352602083019285845261094761124e565b9060405161095481611210565b878152876020820152604080519161096b836111f4565b89835289602084015201525190813403610d5457845180610b81575b50916080916109e19361099861133b565b9651151590604051936109aa856111c2565b619d35988986526020860152604085015260608401528383015260405180809581946302637a4560e41b8352339060048401611409565b03917f00000000000000000000000000000000000000000000000000000000000000006001600160a01b03165af18015610b7657610ad9575b50805160208083015160408085015181518881526001600160a01b0395861694810194909452939091169082015260608101919091527fb303da9fff330570e18ced0ce1b31516609bdeaf9e29a3d1ef67d153aa42eec09360a093909290917fe064501ff0c8345e3c252ac92add47e0e28225460e48f354750dfda9d72df75190608090a1600180851b03815116906040600180871b03602083015116910151916040519485526020850152604084015260608301526080820152a180f35b92909160803d608011610b6f575b610af1818661122c565b840192608085850312610b6b57604051610b0a81611210565b85518152602086015167ffffffffffffffff81168103610b6757610b5b60a09660407fb303da9fff330570e18ced0ce1b31516609bdeaf9e29a3d1ef67d153aa42eec09981946020870152016113a1565b91015291935091610a1a565b8780fd5b8580fd5b503d610ae7565b6040513d87823e3d90fd5b60405163393f876560e21b8152907f00000000000000000000000000000000000000000000000000000000000000006001600160a01b031690602083600481855afa928315610d49578a93610d01575b506001600160a01b03831615610cef57899182916040519060208201926323b872dd60e01b84523360248401526044830152606482015260648152610c15816111c2565b5190826001600160a01b0386165af13d15610ce3573d9067ffffffffffffffff8211610ccf5790610c719160405191610c586020601f19601f840116018461122c565b82523d8b602084013e5b6001600160a01b038416611477565b8051908115159182610ca7575b50501561098757604051635274afe760e01b81526001600160a01b039091166004820152602490fd5b8192509060209181010312610ccb5760200151801590811503610ccb573880610c7e565b8880fd5b634e487b7160e01b8a52604160045260248afd5b610c7190606090610c62565b6040516329b99a9560e11b8152600490fd5b9092506020813d602011610d41575b81610d1d6020938361122c565b81010312610d3d57516001600160a01b0381168103610d3d579138610bd1565b8980fd5b3d9150610d10565b6040513d8c823e3d90fd5b6040516304fb820960e51b8152346004820152602490fd5b604051630aae3de760e01b8152600490fd5b6040516347ec9a3160e01b8152600490fd5b503461014b57604036600319011261014b577f238399d427b947898edb290f5ff0f9109849b1c3ba196a42e35f00c50a54b98b610dcb61116e565b60243590610dd7611375565b63ffffffff16808452600160209081526040808620849055805192835290820192909252a180f35b503461014b57602080600319360112610390576001600160a01b03610e22611158565b168252600581526040822060405192838383549182815201908193835284832090835b818110610e995750505084610e5b91038561122c565b60405193838594850191818652518092526040850193925b828110610e8257505050500390f35b835185528695509381019392810192600101610e73565b825484529286019260019283019201610e45565b503461014b57602036600319011261014b57604060a0916004358152600460205220600180831b0390818154169160018201541690600281015460046003830154920154926040519485526020850152604084015260608301526080820152f35b503461014b578060031936011261014b57604080516001815260026020820152f35b9050366003190160e0811261044c576060136103905767ffffffffffffffff60843581811161112157610f67903690600401611125565b90926001600160a01b0360a43581811603610b6b5760c4358481116110a757610f94903690600401611125565b505033907f0000000000000000000000000000000000000000000000000000000000000000160361110c575063ffffffff9283610fcf6111af565b1691828652600160205260408620549283156110f457506024358093036110c35781602091810103126110bf5735908185526004602052604085209060046003830154920180549283018093116110ab5782905561102b6111af565b946044359485168095036110a7577f53ef1a4505f7cc7ae6f762780b0c93530d0d8fd5e215f47c9cfee3ea275715e1956040957f9fb48f96d5122a8cd86aeac898d585c74e47b5e10fa981ebdc8204f4c620629693608093885193888552166020840152878301526060820152a182519182526020820152a180f35b8680fd5b634e487b7160e01b87526011600452602487fd5b8480fd5b826110cc6111af565b60405163309afaf360e21b815263ffffffff9190911660048201526024810191909152604490fd5b6024906040519063f6ff4fb760e01b82526004820152fd5b6391ac5e4f60e01b8152336004820152602490fd5b8380fd5b9181601f840112156111535782359167ffffffffffffffff8311611153576020838186019501011161115357565b600080fd5b600435906001600160a01b038216820361115357565b6004359063ffffffff8216820361115357565b80548210156111995760005260206000200190600090565b634e487b7160e01b600052603260045260246000fd5b60043563ffffffff811681036111535790565b60a0810190811067ffffffffffffffff8211176111de57604052565b634e487b7160e01b600052604160045260246000fd5b6040810190811067ffffffffffffffff8211176111de57604052565b6060810190811067ffffffffffffffff8211176111de57604052565b90601f8019910116810190811067ffffffffffffffff8211176111de57604052565b6040519060006002549060018260011c9060018416938415611331575b602094858410811461131d57838852879493929181156112fd575060011461129e575b505061129c9250038361122c565b565b9093915060026000527f405787fa12a823e0f2b7631cc41b3ba8828b3321ca811111fa75cd3aa3bb5ace936000915b8183106112e557505061129c9350820101388061128e565b855488840185015294850194879450918301916112cd565b91505061129c94925060ff191682840152151560051b820101388061128e565b634e487b7160e01b85526022600452602485fd5b91607f169161126b565b619d35600081905260016020527fd87f3ab6cb30fd6761044fc5bb58185f979d6d67f7eab5db9676b9d1f17e3172549081156110f4575090565b6000546001600160a01b0316330361138957565b60405163118cdaa760e01b8152336004820152602490fd5b9190826040910312611153576040516113b9816111f4565b6020808294805184520151910152565b919082519283825260005b8481106113f5575050826000602080949584010152601f8019910116010190565b6020818301810151848301820152016113d4565b906020909392936040835263ffffffff8151166040840152818101516060840152608061145d611447604084015160a08488015260e08701906113c9565b6060840151868203603f190160a08801526113c9565b910151151560c08401526001600160a01b03909416910152565b9061149e575080511561148c57805190602001fd5b604051630a12f52160e11b8152600490fd5b815115806114d1575b6114af575090565b604051639996b31560e01b81526001600160a01b039091166004820152602490fd5b50803b156114a756fea26469706673582212208e154e7c24a4247e31137c9739b6e5354ca0ac771f2096bb23ca7f62104e622064736f6c63430008180033",
  "linkReferences": {},
  "deployedLinkReferences": {}
}