{
  "_format": "hh-sol-artifact-1",
  "contractName": "SubscriptionManager",
  "sourceName": "contracts/SubscriptionManager.sol",
  "abi": [
    {
      "inputs": [
        {
          "internalType": "address",
          "name": "_lzEndpoint",
          "type": "address"
        }
      ],
      "stateMutability": "nonpayable",
      "type": "constructor"
    },
    {
      "inputs": [
        {
          "internalType": "address",
          "name": "target",
          "type": "address"
        }
      ],
      "name": "AddressEmptyCode",
      "type": "error"
    },
    {
      "inputs": [
        {
          "internalType": "address",
          "name": "account",
          "type": "address"
        }
      ],
      "name": "AddressInsufficientBalance",
      "type": "error"
    },
    {
      "inputs": [],
      "name": "FailedInnerCall",
      "type": "error"
    },
    {
      "inputs": [],
      "name": "InvalidDelegate",
      "type": "error"
    },
    {
      "inputs": [],
      "name": "InvalidEndpointCall",
      "type": "error"
    },
    {
      "inputs": [
        {
          "internalType": "uint16",
          "name": "optionType",
          "type": "uint16"
        }
      ],
      "name": "InvalidOptionType",
      "type": "error"
    },
    {
      "inputs": [],
      "name": "LzTokenUnavailable",
      "type": "error"
    },
    {
      "inputs": [
        {
          "internalType": "uint32",
          "name": "eid",
          "type": "uint32"
        }
      ],
      "name": "NoPeer",
      "type": "error"
    },
    {
      "inputs": [
        {
          "internalType": "uint256",
          "name": "msgValue",
          "type": "uint256"
        }
      ],
      "name": "NotEnoughNative",
      "type": "error"
    },
    {
      "inputs": [
        {
          "internalType": "address",
          "name": "addr",
          "type": "address"
        }
      ],
      "name": "OnlyEndpoint",
      "type": "error"
    },
    {
      "inputs": [
        {
          "internalType": "uint32",
          "name": "eid",
          "type": "uint32"
        },
        {
          "internalType": "bytes32",
          "name": "sender",
          "type": "bytes32"
        }
      ],
      "name": "OnlyPeer",
      "type": "error"
    },
    {
      "inputs": [
        {
          "internalType": "address",
          "name": "owner",
          "type": "address"
        }
      ],
      "name": "OwnableInvalidOwner",
      "type": "error"
    },
    {
      "inputs": [
        {
          "internalType": "address",
          "name": "account",
          "type": "address"
        }
      ],
      "name": "OwnableUnauthorizedAccount",
      "type": "error"
    },
    {
      "inputs": [
        {
          "internalType": "uint8",
          "name": "bits",
          "type": "uint8"
        },
        {
          "internalType": "uint256",
          "name": "value",
          "type": "uint256"
        }
      ],
      "name": "SafeCastOverflowedUintDowncast",
      "type": "error"
    },
    {
      "inputs": [
        {
          "internalType": "address",
          "name": "token",
          "type": "address"
        }
      ],
      "name": "SafeERC20FailedOperation",
      "type": "error"
    },
    {
      "inputs": [],
      "name": "SubscriptionManager_AlreadySubscribed",
      "type": "error"
    },
    {
      "inputs": [],
      "name": "SubscriptionManager_EmptyName",
      "type": "error"
    },
    {
      "inputs": [],
      "name": "SubscriptionManager_NotProvider",
      "type": "error"
    },
    {
      "inputs": [],
      "name": "SubscriptionManager_OnlyProvider",
      "type": "error"
    },
    {
      "inputs": [],
      "name": "SubscriptionManager_OnlySubcriber",
      "type": "error"
    },
    {
      "inputs": [],
      "name": "SubscriptionManager_PaymentNotDueYet",
      "type": "error"
    },
    {
      "inputs": [],
      "name": "SubscriptionManager_ZeroAmount",
      "type": "error"
    },
    {
      "inputs": [],
      "name": "SubscriptionManager_ZeroInterval",
      "type": "error"
    },
    {
      "anonymous": false,
      "inputs": [
        {
          "indexed": false,
          "internalType": "uint256",
          "name": "subscriptionId",
          "type": "uint256"
        },
        {
          "indexed": false,
          "internalType": "address",
          "name": "subscriber",
          "type": "address"
        },
        {
          "indexed": false,
          "internalType": "uint32",
          "name": "senderEid",
          "type": "uint32"
        },
        {
          "indexed": false,
          "internalType": "bytes32",
          "name": "sender",
          "type": "bytes32"
        },
        {
          "indexed": false,
          "internalType": "uint64",
          "name": "nonce",
          "type": "uint64"
        }
      ],
      "name": "MessageReceived",
      "type": "event"
    },
    {
      "anonymous": false,
      "inputs": [
        {
          "indexed": false,
          "internalType": "uint256",
          "name": "subscriptionId",
          "type": "uint256"
        },
        {
          "indexed": false,
          "internalType": "address",
          "name": "subscriber",
          "type": "address"
        },
        {
          "indexed": false,
          "internalType": "address",
          "name": "provider",
          "type": "address"
        },
        {
          "indexed": false,
          "internalType": "uint256",
          "name": "amount",
          "type": "uint256"
        },
        {
          "indexed": false,
          "internalType": "uint32",
          "name": "dstEid",
          "type": "uint32"
        }
      ],
      "name": "MessageSent",
      "type": "event"
    },
    {
      "anonymous": false,
      "inputs": [
        {
          "indexed": true,
          "internalType": "address",
          "name": "previousOwner",
          "type": "address"
        },
        {
          "indexed": true,
          "internalType": "address",
          "name": "newOwner",
          "type": "address"
        }
      ],
      "name": "OwnershipTransferred",
      "type": "event"
    },
    {
      "anonymous": false,
      "inputs": [
        {
          "indexed": false,
          "internalType": "uint256",
          "name": "subscriptionId",
          "type": "uint256"
        },
        {
          "indexed": false,
          "internalType": "address",
          "name": "subscriber",
          "type": "address"
        },
        {
          "indexed": false,
          "internalType": "address",
          "name": "provider",
          "type": "address"
        },
        {
          "indexed": false,
          "internalType": "uint256",
          "name": "amount",
          "type": "uint256"
        }
      ],
      "name": "PaymentFinished",
      "type": "event"
    },
    {
      "anonymous": false,
      "inputs": [
        {
          "indexed": false,
          "internalType": "uint256",
          "name": "subscriptionId",
          "type": "uint256"
        },
        {
          "indexed": false,
          "internalType": "address",
          "name": "subscriber",
          "type": "address"
        },
        {
          "indexed": false,
          "internalType": "address",
          "name": "provider",
          "type": "address"
        },
        {
          "indexed": false,
          "internalType": "uint256",
          "name": "amount",
          "type": "uint256"
        }
      ],
      "name": "PaymentInitiated",
      "type": "event"
    },
    {
      "anonymous": false,
      "inputs": [
        {
          "indexed": false,
          "internalType": "uint32",
          "name": "eid",
          "type": "uint32"
        },
        {
          "indexed": false,
          "internalType": "bytes32",
          "name": "peer",
          "type": "bytes32"
        }
      ],
      "name": "PeerSet",
      "type": "event"
    },
    {
      "anonymous": false,
      "inputs": [
        {
          "indexed": false,
          "internalType": "uint256",
          "name": "subscriptionId",
          "type": "uint256"
        },
        {
          "indexed": false,
          "internalType": "address",
          "name": "provider",
          "type": "address"
        },
        {
          "indexed": false,
          "internalType": "string",
          "name": "name",
          "type": "string"
        },
        {
          "indexed": false,
          "internalType": "uint256",
          "name": "amount",
          "type": "uint256"
        },
        {
          "indexed": false,
          "internalType": "uint256",
          "name": "interval",
          "type": "uint256"
        }
      ],
      "name": "SubscriptionCreated",
      "type": "event"
    },
    {
      "anonymous": false,
      "inputs": [
        {
          "indexed": false,
          "internalType": "uint256",
          "name": "subscriptionId",
          "type": "uint256"
        },
        {
          "indexed": false,
          "internalType": "address",
          "name": "subscriber",
          "type": "address"
        }
      ],
      "name": "SubscriptionSubscribed",
      "type": "event"
    },
    {
      "anonymous": false,
      "inputs": [
        {
          "indexed": false,
          "internalType": "uint256",
          "name": "subscriptionId",
          "type": "uint256"
        },
        {
          "indexed": false,
          "internalType": "address",
          "name": "subscriber",
          "type": "address"
        }
      ],
      "name": "SubscriptionUnsubscribed",
      "type": "event"
    },
    {
      "anonymous": false,
      "inputs": [
        {
          "indexed": false,
          "internalType": "uint256",
          "name": "subscriptionId",
          "type": "uint256"
        },
        {
          "indexed": false,
          "internalType": "address",
          "name": "provider",
          "type": "address"
        },
        {
          "indexed": false,
          "internalType": "string",
          "name": "newName",
          "type": "string"
        },
        {
          "indexed": false,
          "internalType": "uint256",
          "name": "newAmount",
          "type": "uint256"
        },
        {
          "indexed": false,
          "internalType": "uint256",
          "name": "newInterval",
          "type": "uint256"
        }
      ],
      "name": "SubscriptionUpdated",
      "type": "event"
    },
    {
      "inputs": [
        {
          "internalType": "address",
          "name": "_addr",
          "type": "address"
        }
      ],
      "name": "addressToBytes32",
      "outputs": [
        {
          "internalType": "bytes32",
          "name": "",
          "type": "bytes32"
        }
      ],
      "stateMutability": "pure",
      "type": "function"
    },
    {
      "inputs": [
        {
          "components": [
            {
              "internalType": "uint32",
              "name": "srcEid",
              "type": "uint32"
            },
            {
              "internalType": "bytes32",
              "name": "sender",
              "type": "bytes32"
            },
            {
              "internalType": "uint64",
              "name": "nonce",
              "type": "uint64"
            }
          ],
          "internalType": "struct Origin",
          "name": "origin",
          "type": "tuple"
        }
      ],
      "name": "allowInitializePath",
      "outputs": [
        {
          "internalType": "bool",
          "name": "",
          "type": "bool"
        }
      ],
      "stateMutability": "view",
      "type": "function"
    },
    {
      "inputs": [
        {
          "internalType": "bytes32",
          "name": "_b",
          "type": "bytes32"
        }
      ],
      "name": "bytes32ToAddress",
      "outputs": [
        {
          "internalType": "address",
          "name": "",
          "type": "address"
        }
      ],
      "stateMutability": "pure",
      "type": "function"
    },
    {
      "inputs": [
        {
          "internalType": "string",
          "name": "_name",
          "type": "string"
        },
        {
          "internalType": "uint256",
          "name": "_amount",
          "type": "uint256"
        },
        {
          "internalType": "uint256",
          "name": "_interval",
          "type": "uint256"
        }
      ],
      "name": "createSubscription",
      "outputs": [],
      "stateMutability": "nonpayable",
      "type": "function"
    },
    {
      "inputs": [],
      "name": "endpoint",
      "outputs": [
        {
          "internalType": "contract ILayerZeroEndpointV2",
          "name": "",
          "type": "address"
        }
      ],
      "stateMutability": "view",
      "type": "function"
    },
    {
      "inputs": [],
      "name": "getAllSubscriptions",
      "outputs": [
        {
          "components": [
            {
              "internalType": "uint256",
              "name": "subscriptionId",
              "type": "uint256"
            },
            {
              "internalType": "address",
              "name": "provider",
              "type": "address"
            },
            {
              "internalType": "string",
              "name": "name",
              "type": "string"
            },
            {
              "internalType": "uint256",
              "name": "amount",
              "type": "uint256"
            },
            {
              "internalType": "uint256",
              "name": "interval",
              "type": "uint256"
            }
          ],
          "internalType": "struct Types.Subscription[]",
          "name": "allSubscriptions",
          "type": "tuple[]"
        }
      ],
      "stateMutability": "view",
      "type": "function"
    },
    {
      "inputs": [
        {
          "internalType": "address",
          "name": "_provider",
          "type": "address"
        }
      ],
      "name": "getAllSubscriptionsForProvider",
      "outputs": [
        {
          "components": [
            {
              "internalType": "uint256",
              "name": "subscriptionId",
              "type": "uint256"
            },
            {
              "internalType": "address",
              "name": "provider",
              "type": "address"
            },
            {
              "internalType": "string",
              "name": "name",
              "type": "string"
            },
            {
              "internalType": "uint256",
              "name": "amount",
              "type": "uint256"
            },
            {
              "internalType": "uint256",
              "name": "interval",
              "type": "uint256"
            }
          ],
          "internalType": "struct Types.Subscription[]",
          "name": "allSubscriptions",
          "type": "tuple[]"
        }
      ],
      "stateMutability": "view",
      "type": "function"
    },
    {
      "inputs": [
        {
          "internalType": "address",
          "name": "_subscriber",
          "type": "address"
        }
      ],
      "name": "getAllSubscriptionsForSubscriber",
      "outputs": [
        {
          "components": [
            {
              "internalType": "uint256",
              "name": "subscriptionId",
              "type": "uint256"
            },
            {
              "internalType": "address",
              "name": "provider",
              "type": "address"
            },
            {
              "internalType": "string",
              "name": "name",
              "type": "string"
            },
            {
              "internalType": "uint256",
              "name": "amount",
              "type": "uint256"
            },
            {
              "internalType": "uint256",
              "name": "interval",
              "type": "uint256"
            },
            {
              "internalType": "uint256",
              "name": "nextPaymentDate",
              "type": "uint256"
            }
          ],
          "internalType": "struct Types.DetailedSubscribedSubscription[]",
          "name": "allSubscriptions",
          "type": "tuple[]"
        }
      ],
      "stateMutability": "view",
      "type": "function"
    },
    {
      "inputs": [
        {
          "components": [
            {
              "internalType": "uint32",
              "name": "srcEid",
              "type": "uint32"
            },
            {
              "internalType": "bytes32",
              "name": "sender",
              "type": "bytes32"
            },
            {
              "internalType": "uint64",
              "name": "nonce",
              "type": "uint64"
            }
          ],
          "internalType": "struct Origin",
          "name": "",
          "type": "tuple"
        },
        {
          "internalType": "bytes",
          "name": "",
          "type": "bytes"
        },
        {
          "internalType": "address",
          "name": "_sender",
          "type": "address"
        }
      ],
      "name": "isComposeMsgSender",
      "outputs": [
        {
          "internalType": "bool",
          "name": "",
          "type": "bool"
        }
      ],
      "stateMutability": "view",
      "type": "function"
    },
    {
      "inputs": [
        {
          "internalType": "string",
          "name": "",
          "type": "string"
        }
      ],
      "name": "lzBlockchainEIDs",
      "outputs": [
        {
          "internalType": "uint32",
          "name": "",
          "type": "uint32"
        }
      ],
      "stateMutability": "view",
      "type": "function"
    },
    {
      "inputs": [
        {
          "components": [
            {
              "internalType": "uint32",
              "name": "srcEid",
              "type": "uint32"
            },
            {
              "internalType": "bytes32",
              "name": "sender",
              "type": "bytes32"
            },
            {
              "internalType": "uint64",
              "name": "nonce",
              "type": "uint64"
            }
          ],
          "internalType": "struct Origin",
          "name": "_origin",
          "type": "tuple"
        },
        {
          "internalType": "bytes32",
          "name": "_guid",
          "type": "bytes32"
        },
        {
          "internalType": "bytes",
          "name": "_message",
          "type": "bytes"
        },
        {
          "internalType": "address",
          "name": "_executor",
          "type": "address"
        },
        {
          "internalType": "bytes",
          "name": "_extraData",
          "type": "bytes"
        }
      ],
      "name": "lzReceive",
      "outputs": [],
      "stateMutability": "payable",
      "type": "function"
    },
    {
      "inputs": [
        {
          "internalType": "uint256",
          "name": "_subscriptionId",
          "type": "uint256"
        },
        {
          "internalType": "string",
          "name": "_preferredBlockchain",
          "type": "string"
        }
      ],
      "name": "makePayment",
      "outputs": [],
      "stateMutability": "payable",
      "type": "function"
    },
    {
      "inputs": [
        {
          "internalType": "uint32",
          "name": "",
          "type": "uint32"
        },
        {
          "internalType": "bytes32",
          "name": "",
          "type": "bytes32"
        }
      ],
      "name": "nextNonce",
      "outputs": [
        {
          "internalType": "uint64",
          "name": "nonce",
          "type": "uint64"
        }
      ],
      "stateMutability": "view",
      "type": "function"
    },
    {
      "inputs": [],
      "name": "oAppVersion",
      "outputs": [
        {
          "internalType": "uint64",
          "name": "senderVersion",
          "type": "uint64"
        },
        {
          "internalType": "uint64",
          "name": "receiverVersion",
          "type": "uint64"
        }
      ],
      "stateMutability": "pure",
      "type": "function"
    },
    {
      "inputs": [],
      "name": "owner",
      "outputs": [
        {
          "internalType": "address",
          "name": "",
          "type": "address"
        }
      ],
      "stateMutability": "view",
      "type": "function"
    },
    {
      "inputs": [
        {
          "internalType": "uint32",
          "name": "eid",
          "type": "uint32"
        }
      ],
      "name": "peers",
      "outputs": [
        {
          "internalType": "bytes32",
          "name": "peer",
          "type": "bytes32"
        }
      ],
      "stateMutability": "view",
      "type": "function"
    },
    {
      "inputs": [
        {
          "internalType": "address",
          "name": "",
          "type": "address"
        },
        {
          "internalType": "uint256",
          "name": "",
          "type": "uint256"
        }
      ],
      "name": "providerToSubscriptions",
      "outputs": [
        {
          "internalType": "uint256",
          "name": "",
          "type": "uint256"
        }
      ],
      "stateMutability": "view",
      "type": "function"
    },
    {
      "inputs": [
        {
          "internalType": "uint256",
          "name": "_subscriptionId",
          "type": "uint256"
        },
        {
          "internalType": "address",
          "name": "_subscriber",
          "type": "address"
        },
        {
          "internalType": "string",
          "name": "_preferredBlockchain",
          "type": "string"
        }
      ],
      "name": "quote",
      "outputs": [
        {
          "components": [
            {
              "internalType": "uint256",
              "name": "nativeFee",
              "type": "uint256"
            },
            {
              "internalType": "uint256",
              "name": "lzTokenFee",
              "type": "uint256"
            }
          ],
          "internalType": "struct MessagingFee",
          "name": "fee",
          "type": "tuple"
        }
      ],
      "stateMutability": "view",
      "type": "function"
    },
    {
      "inputs": [],
      "name": "renounceOwnership",
      "outputs": [],
      "stateMutability": "nonpayable",
      "type": "function"
    },
    {
      "inputs": [
        {
          "internalType": "address",
          "name": "_delegate",
          "type": "address"
        }
      ],
      "name": "setDelegate",
      "outputs": [],
      "stateMutability": "nonpayable",
      "type": "function"
    },
    {
      "inputs": [
        {
          "internalType": "string[]",
          "name": "_blockchains",
          "type": "string[]"
        },
        {
          "internalType": "uint32[]",
          "name": "_eids",
          "type": "uint32[]"
        }
      ],
      "name": "setLzBlockchainEIDs",
      "outputs": [],
      "stateMutability": "nonpayable",
      "type": "function"
    },
    {
      "inputs": [
        {
          "internalType": "uint128",
          "name": "_gas",
          "type": "uint128"
        }
      ],
      "name": "setLzOptions",
      "outputs": [],
      "stateMutability": "nonpayable",
      "type": "function"
    },
    {
      "inputs": [
        {
          "internalType": "uint32",
          "name": "_eid",
          "type": "uint32"
        },
        {
          "internalType": "bytes32",
          "name": "_peer",
          "type": "bytes32"
        }
      ],
      "name": "setPeer",
      "outputs": [],
      "stateMutability": "nonpayable",
      "type": "function"
    },
    {
      "inputs": [
        {
          "internalType": "uint256",
          "name": "_subscriptionId",
          "type": "uint256"
        },
        {
          "internalType": "string",
          "name": "_preferredBlockchain",
          "type": "string"
        }
      ],
      "name": "subscribeSubscription",
      "outputs": [],
      "stateMutability": "payable",
      "type": "function"
    },
    {
      "inputs": [
        {
          "internalType": "address",
          "name": "",
          "type": "address"
        },
        {
          "internalType": "uint256",
          "name": "",
          "type": "uint256"
        }
      ],
      "name": "subscriberToSubscriptions",
      "outputs": [
        {
          "internalType": "uint256",
          "name": "subscriptionId",
          "type": "uint256"
        },
        {
          "internalType": "uint256",
          "name": "nextPaymentDate",
          "type": "uint256"
        }
      ],
      "stateMutability": "view",
      "type": "function"
    },
    {
      "inputs": [],
      "name": "subscriptionCounter",
      "outputs": [
        {
          "internalType": "uint256",
          "name": "",
          "type": "uint256"
        }
      ],
      "stateMutability": "view",
      "type": "function"
    },
    {
      "inputs": [
        {
          "internalType": "uint256",
          "name": "",
          "type": "uint256"
        }
      ],
      "name": "subscriptions",
      "outputs": [
        {
          "internalType": "uint256",
          "name": "subscriptionId",
          "type": "uint256"
        },
        {
          "internalType": "address",
          "name": "provider",
          "type": "address"
        },
        {
          "internalType": "string",
          "name": "name",
          "type": "string"
        },
        {
          "internalType": "uint256",
          "name": "amount",
          "type": "uint256"
        },
        {
          "internalType": "uint256",
          "name": "interval",
          "type": "uint256"
        }
      ],
      "stateMutability": "view",
      "type": "function"
    },
    {
      "inputs": [
        {
          "internalType": "address",
          "name": "newOwner",
          "type": "address"
        }
      ],
      "name": "transferOwnership",
      "outputs": [],
      "stateMutability": "nonpayable",
      "type": "function"
    },
    {
      "inputs": [
        {
          "internalType": "uint256",
          "name": "_subscriptionId",
          "type": "uint256"
        }
      ],
      "name": "unsubscribeSubscription",
      "outputs": [],
      "stateMutability": "nonpayable",
      "type": "function"
    },
    {
      "inputs": [
        {
          "internalType": "uint256",
          "name": "_subscriptionId",
          "type": "uint256"
        },
        {
          "internalType": "string",
          "name": "_newName",
          "type": "string"
        },
        {
          "internalType": "uint256",
          "name": "_newAmount",
          "type": "uint256"
        },
        {
          "internalType": "uint256",
          "name": "_newInterval",
          "type": "uint256"
        }
      ],
      "name": "updateSubscription",
      "outputs": [],
      "stateMutability": "nonpayable",
      "type": "function"
    }
  ],
  "bytecode": "0x60a0604052346200018d5760206200318d80380380916200002082620001ba565b60a039126200018d5760a0516001600160a01b038116908190036200018d576200004a33620003e6565b608052331562000192576080516001600160a01b0316803b156200018d5760405163ca5eb5e160e01b8152336004820152906000908290602490829084905af18015620001875762000169575b620000b5620000af620000a96200044c565b6200046b565b620002d3565b620000f3620000e2602f6040516e6f7074696d69736d5365706f6c696160881b81526003600f8201522090565b805463ffffffff1916619d28179055565b6200012d6200011c602b6040516a706f6c79676f6e416d6f7960a81b81526003600b8201522090565b805463ffffffff1916619d4b179055565b604051612b6590816200062882396080518181816102ae01528181610cf4015281816117bc015281816126b7015281816127aa01526129540152f35b80620001796200018092620001e7565b80620003ce565b3862000097565b620003da565b600080fd5b604051632d618d8160e21b8152600490fd5b634e487b7160e01b600052604160045260246000fd5b60a0601f91909101601f19168101906001600160401b03821190821017620001e157604052565b620001a4565b6001600160401b038111620001e157604052565b604081019081106001600160401b03821117620001e157604052565b601f909101601f19168101906001600160401b03821190821017620001e157604052565b90600182811c921680156200026d575b60208310146200025757565b634e487b7160e01b600052602260045260246000fd5b91607f16916200024b565b601f811162000285575050565b60009060026000526020600020906020601f850160051c83019410620002c8575b601f0160051c01915b828110620002bc57505050565b818155600101620002af565b9092508290620002a6565b80519091906001600160401b038111620001e157620002ff81620002f96002546200023b565b62000278565b602080601f831160011462000346575081906200033593946000926200033a575b50508160011b916000199060031b1c19161790565b600255565b01519050388062000320565b6002600052601f198316949091907f405787fa12a823e0f2b7631cc41b3ba8828b3321ca811111fa75cd3aa3bb5ace926000905b878210620003b55750508360019596106200039b575b505050811b01600255565b015160001960f88460031b161c1916905538808062000390565b806001859682949686015181550195019301906200037a565b60009103126200018d57565b6040513d6000823e3d90fd5b6001600160a01b0390811690811562000433576000548260018060a01b0319821617600055167f8be0079c531659141344cd1fd0a4f28419497f9722a3daafe3b4186f6b6457e0600080a3565b604051631e4fbdf760e01b815260006004820152602490fd5b604051600360f01b6020820152600281526200046881620001fb565b90565b61ffff906003826200047d8362000563565b16036200053f57604051613d0960861b60208201526010815290620004a282620001fb565b600383620004b08362000563565b16036200051b578151838111620004fc578316600101928311620004f657620004e7620004689260405194859360208501620005e6565b03601f19810183528262000217565b6200054d565b604490604051906306dfcc6560e41b8252601060048301526024820152fd5b826200052960249262000563565b604051633a51740d60e01b815291166004820152fd5b906200052960249262000563565b634e487b7160e01b600052601160045260246000fd5b600281511062000574576002015190565b60405162461bcd60e51b815260206004820152601460248201527f746f55696e7431365f6f75744f66426f756e64730000000000000000000000006044820152606490fd5b9081519160005b838110620005d2575050016000815290565b8060208092840101518185015201620005c0565b91620005fa620004689493600493620005b9565b600160f81b80825260f09290921b6001600160f01b031916600182015260038101919091520190620005b956fe6080604052600436101561001257600080fd5b60003560e01c806313137d65146101f757806317442b70146101f25780632292e030146101ed57806327eddfc7146101e85780632d5bbf60146101e35780633400288b146101de5780633b1611d1146101d95780633f49d27a146101d457806356eb00a1146101cf57806358e15af3146101ca5780635ced058e146101c55780635e280f11146101c0578063715018a6146101bb5780637d25a05e146101b657806380b53c38146101b157806382413eac146101ac57806382c947b7146101a75780638da5cb5b146101a2578063903a82981461019d57806391da06fb14610198578063a5647ef714610193578063aa69bce81461018e578063ae7b697714610189578063bb0b6a5314610184578063c8ae3d5d1461017f578063ca5eb5e11461017a578063ed48083b14610175578063f2fde38b14610170578063f659fe1e1461016b5763ff7bd03d1461016657600080fd5b611a91565b6119e2565b611956565b611831565b61178b565b611571565b611536565b6113fd565b6112d1565b611198565b61113c565b611106565b6110dd565b6110ac565b61104e565b610dd8565b610d7e565b610d23565b610cde565b610cb7565b610c31565b610afa565b61092a565b610820565b610767565b6106df565b610477565b6103a1565b61034f565b610250565b606090600319011261020d57600490565b600080fd5b9181601f8401121561020d578235916001600160401b03831161020d576020838186019501011161020d57565b6001600160a01b0381160361020d57565b60e036600319011261020d57610265366101fc565b6001600160401b0360843581811161020d57610285903690600401610212565b9161029160a43561023f565b60c43590811161020d576102a9903690600401610212565b5050337f00000000000000000000000000000000000000000000000000000000000000006001600160a01b031603610337576102ec6102e784611ad7565b61228c565b926020810135809403610305576103039350612308565b005b61030f8491611ad7565b60405163309afaf360e21b815263ffffffff9190911660048201526024810191909152604490fd5b6040516391ac5e4f60e01b8152336004820152602490fd5b3461020d57600036600319011261020d57604080516001815260026020820152f35b9181601f8401121561020d578235916001600160401b03831161020d576020808501948460051b01011161020d57565b3461020d57604036600319011261020d576001600160401b0360043581811161020d576103d2903690600401610371565b909160243581811161020d576103ec903690600401610371565b6103f7949194612502565b60005b84811061040357005b81811015610472578060051b90818701359161041e83610759565b840135601e198536030181121561020d57840180359086821161020d5760200192813603841361020d5761045761046c92600195611ae4565b9063ffffffff1663ffffffff19825416179055565b016103fa565b6107ee565b3461020d57602036600319011261020d576004356001600160801b038116810361020d576104a3612502565b604051600360f01b602082015260028152906104be8261059b565b61ffff6003816104cd8561280d565b1603610509576103036105048385604051916001600160801b03199060801b166020830152601082526104ff8261059b565b6128ae565b611bdb565b6024906105158461280d565b604051633a51740d60e01b815291166004820152fd5b90600182811c9216801561055b575b602083101461054557565b634e487b7160e01b600052602260045260246000fd5b91607f169161053a565b634e487b7160e01b600052604160045260246000fd5b60a081019081106001600160401b0382111761059657604052565b610565565b604081019081106001600160401b0382111761059657604052565b606081019081106001600160401b0382111761059657604052565b90601f801991011681019081106001600160401b0382111761059657604052565b906040519182600082546106058161052b565b908184526020946001916001811690816000146106755750600114610636575b505050610634925003836105d1565b565b600090815285812095935091905b81831061065d5750506106349350820101388080610625565b85548884018501529485019487945091830191610644565b9250505061063494925060ff191682840152151560051b820101388080610625565b60005b8381106106aa5750506000910152565b818101518382015260200161069a565b906020916106d381518092818552858086019101610697565b601f01601f1916010190565b3461020d57602036600319011261020d576004356000908152600560205260409020805460018201546001600160a01b03169161071e600282016105f2565b61074a60046003840154930154916040519586958652602086015260a0604086015260a08501906106ba565b91606084015260808301520390f35b63ffffffff81160361020d57565b3461020d57604036600319011261020d577f238399d427b947898edb290f5ff0f9109849b1c3ba196a42e35f00c50a54b98b6004356107a581610759565b602435906107b1612502565b63ffffffff81166000526001602052816040600020556107e9604051928392836020909392919363ffffffff60408201951681520152565b0390a1005b634e487b7160e01b600052603260045260246000fd5b80548210156104725760005260206000209060011b0190600090565b3461020d57604036600319011261020d5760043561083d8161023f565b6001600160a01b031660009081526007602052604090208054602435919082101561020d5760409161086e91610804565b506001815491015482519182526020820152f35b6020808201908083528351809252604092604081018260408560051b8401019601946000925b8584106108b9575050505050505090565b909192939495968580600192603f198582030187528a51906108fb60c083518352868060a01b038585015116858401528884015190808a8501528301906106ba565b91606080820151908301526080808201519083015260a0809101519101529901940194019295949391906108a8565b3461020d5760208060031936011261020d576004356109488161023f565b6001600160a01b0381166000908152600760205260409020549061096b82611ce2565b9260005b83811061098857604051806109848782610882565b0390f35b806109b06001926109ab8660018060a01b03166000526007602052604060002090565b610804565b5054826109d3836109ab8860018060a01b03166000526007602052604060002090565b5001546109f26109ed836000526005602052604060002090565b611d6d565b808601516001600160a01b0316906040808201516060908184015192610a3260808096015196610a20610ba6565b998a526001600160a01b03168c8a0152565b87015285015283015260a0820152610a4a8288611dbc565b52610a558187611dbc565b500161096f565b6020808201908083528351809252604092604081018260408560051b8401019601946000925b858410610a93575050505050505090565b909192939495968580600192603f198582030187528a5190610ad560a083518352868060a01b038585015116858401528884015190808a8501528301906106ba565b9160608082015190830152608080910151910152990194019401929594939190610a82565b3461020d57600080600319360112610ba35760049060045490610b1c82611dd0565b92815b838110610b3457604051806109848782610a5c565b80600191845260206005815283604080872090805193610b538561057b565b82548552868060a01b03878401541690850152610b72600283016105f2565b908401526003810154606084015201546080820152610b918288611dbc565b52610b9c8187611dbc565b5001610b1f565b80fd5b6040519060c082018281106001600160401b0382111761059657604052565b604051906106348261059b565b604051906106348261057b565b6001600160401b03811161059657601f01601f191660200190565b929192610c0682610bdf565b91610c1460405193846105d1565b82948184528183011161020d578281602093846000960137010152565b3461020d57602036600319011261020d576004356001600160401b03811161020d573660238201121561020d5763ffffffff610c926020610c7f610984943690602481600401359101610bfa565b8160405193828580945193849201610697565b8101600381520301902054166040519182918291909163ffffffff6020820193169052565b3461020d57602036600319011261020d576040516004356001600160a01b03168152602090f35b3461020d57600036600319011261020d576040517f00000000000000000000000000000000000000000000000000000000000000006001600160a01b03168152602090f35b3461020d57600080600319360112610ba357610d3d612502565b80546001600160a01b03198116825581906001600160a01b03167f8be0079c531659141344cd1fd0a4f28419497f9722a3daafe3b4186f6b6457e08280a380f35b3461020d57604036600319011261020d57610d9a600435610759565b602060405160008152f35b90604060031983011261020d5760043591602435906001600160401b03821161020d57610dd491600401610212565b9091565b610de136610da5565b9091610dfa6109ed826000526005602052604060002090565b6020810180519193916001600160a01b03166001600160a01b0316331461103c573360009081526007602052604090205460005b818110610fff57505093610fc4610f316107e993610fbc7fb303da9fff330570e18ced0ce1b31516609bdeaf9e29a3d1ef67d153aa42eec098610e9d610e863360018060a01b03166000526007602052604060002090565b610e8e610bc5565b908a8252426020830152611e44565b604080518981523360208201527fef4b1ef9428671fea1021c551664a96be3018e9ae31f4a3a8f760fa6ffa685d69190a18051610f5e906060906001600160a01b03169a01805160408051602081018d905233918101919091526001600160a01b03909c1660608d015260808c015299610f248160a081015b03601f1981018352826105d1565b610f3b610f31868a611ae4565b5463ffffffff1690565b610f43610bc5565b90348252600060208301523392610f58611e7d565b9161262e565b5080518951604080518b81523360208201526001600160a01b039093169083015260608201527fe064501ff0c8345e3c252ac92add47e0e28225460e48f354750dfda9d72df7519080608081015b0390a1516001600160a01b031690565b965193611ae4565b604080519485523360208601526001600160a01b0390951694840194909452606083015263ffffffff909216608082015290819060a0820190565b336000908152600760205260409020859061101b908390610804565b50541461102a57600101610e2e565b604051630f66681d60e01b8152600490fd5b604051630b51d36d60e41b8152600490fd5b3461020d5760a036600319011261020d57611068366101fc565b506064356001600160401b03811161020d57611088903690600401610212565b505060206084356110988161023f565b6040516001600160a01b0390911630148152f35b3461020d57602036600319011261020d5760206004356110cb8161023f565b6040516001600160a01b039091168152f35b3461020d57600036600319011261020d576000546040516001600160a01b039091168152602090f35b3461020d57600036600319011261020d576020600454604051908152f35b80548210156104725760005260206000200190600090565b3461020d57604036600319011261020d576004356111598161023f565b6001600160a01b031660009081526006602052604090208054602435919082101561020d5760209161118a91611124565b90546040519160031b1c8152f35b3461020d57606036600319011261020d576024356004356111b88261023f565b604435916001600160401b03831161020d576112a5610f316112a06112b4946111e8610984973690600401610212565b9290916111f3611f41565b5080600052600560205261129260406000206112606040516112148161057b565b8254815260018301546001600160a01b0316602082019081529061123a600285016105f2565b60408201526080600460038601549586606085015201549101525160018060a01b031690565b604051998a946020860190949392916060926080830196835260018060a01b0380921660208401521660408201520152565b03601f1981018752866105d1565b611ae4565b906112ae611e7d565b9161273f565b604051918291829190916020806040830194805184520151910152565b3461020d57602036600319011261020d5733600090815260076020526040812054600435825b82811061131b575b5050501561130957005b6040516347ec9a3160e01b8152600490fd5b3360009081526007602052604090208290611337908390610804565b505414611346576001016112f7565b7f7ffece82c51ed5ecb5a0c0428ca9262a8556bbed6aedd29ec64a812b82f83c2d929350906113c46113f2926113be6113a66001976113a061139a3360018060a01b03166000526007602052604060002090565b91611f70565b90610804565b50336000908152600760205260409020909290610804565b90611f84565b3360009081526007602052604090206113dc90611fa4565b6040805191825233602083015290918291820190565b0390a13880806112ff565b3461020d57606036600319011261020d57600480356001600160401b03811161020d5761142d9036908301610212565b604435602435821561152557801561151457811561150357906107e9917fb2fc5da24eb26d43d75f07933c5e06f5ab4be4730986562ccd183155065aa5a395549361147f61147a86611fe2565b600455565b6114f661148a610bd2565b8681523360208201908152906114cf906114a536868c610bfa565b60408201528560608201528660808201526114ca896000526005602052604060002090565b611ff1565b3360009081526006602052604090206114e9908890612116565b516001600160a01b031690565b956040519687968761214b565b604051631bf8707b60e01b81528590fd5b60405163e83b5fdb60e01b81528590fd5b604051633e75c8d560e11b81528590fd5b3461020d57602036600319011261020d5763ffffffff60043561155881610759565b1660005260016020526020604060002054604051908152f35b61157a36610da5565b3360009081526007602052604081209093919290549160005b8381106115a7575b50505050501561130957005b33600090815260076020526040902082906115c3908390610804565b5054146115d257600101611593565b92509092935060019361161a61160f6115f86109ed856000526005602052604060002090565b336000908152600760205260409020909590610804565b506020918291612195565b01514210611779577fb303da9fff330570e18ced0ce1b31516609bdeaf9e29a3d1ef67d153aa42eec094611732610f3161176c9461172a8589016116d96060611669835160018060a01b031690565b9b01805160408051808c018e81523360208201526001600160a01b03909f168f83015260608f0192909252919c919990916116b190839060800103601f1981018452836105d1565b6116be610f31878b611ae4565b60006116c8610bc5565b923484528301523392610f58611e7d565b5080518a5188518b81523360208201526001600160a01b03909216604083015260608201527fe064501ff0c8345e3c252ac92add47e0e28225460e48f354750dfda9d72df751908060808101610fac565b975193611ae4565b91519384523360208501526001600160a01b039094166040840152606083019390935263ffffffff909216608082015290819060a0820190565b0390a1388080808061159b565b604051630aae3de760e01b8152600490fd5b3461020d5760006020366003190112610ba3576004356117aa8161023f565b6117b2612502565b6001600160a01b037f0000000000000000000000000000000000000000000000000000000000000000811691839190833b1561182d5760249083604051958694859363ca5eb5e160e01b85521660048401525af1801561182857611814575080f35b6001600160401b0381116105965760405280f35b6121b3565b8280fd5b3461020d57608036600319011261020d576004356024356001600160401b03811161020d57611864903690600401610212565b9160443560643560206118846109ed856000526005602052604060002090565b018051909290336001600160a01b039091160361194457856114f66107e9947f775eda45052f9ee44781a85efb12d5befaadabad5736ca930785c1b70d3ce1419861191e575b83611900575b846118e257516001600160a01b031690565b8460046118f9896000526005602052604060002090565b01556114e9565b836003611917896000526005602052604060002090565b01556118d0565b61193f838960026119398b6000526005602052604060002090565b016121bf565b6118ca565b604051639f647e2360e01b8152600490fd5b3461020d57602036600319011261020d576004356119738161023f565b61197b612502565b6001600160a01b0390811680156119c957600080546001600160a01b03198116831782559092167f8be0079c531659141344cd1fd0a4f28419497f9722a3daafe3b4186f6b6457e08380a380f35b604051631e4fbdf760e01b815260006004820152602490fd5b3461020d5760208060031936011261020d57600435611a008161023f565b6001600160a01b0316600081815260066020819052604080832054939490929190611a2a85611dd0565b9560005b868110611a4357604051806109848a82610a5c565b600190828652848452611a756109ed611a5e838a8a20611124565b90549060031b1c6000526005602052604060002090565b611a7f828b611dbc565b52611a8a818a611dbc565b5001611a2e565b3461020d57606036600319011261020d576020611aad366101fc565b63ffffffff8135611abd81610759565b166000526001825260406000205482604051920135148152f35b35611ae181610759565b90565b6020908260405193849283378101600381520301902090565b634e487b7160e01b600052600060045260246000fd5b601f8111611b1f575050565b60009060026000527f405787fa12a823e0f2b7631cc41b3ba8828b3321ca811111fa75cd3aa3bb5ace906020601f850160051c83019410611b7b575b601f0160051c01915b828110611b7057505050565b818155600101611b64565b9092508290611b5b565b90601f8111611b9357505050565b6000916000526020600020906020601f850160051c83019410611bd1575b601f0160051c01915b828110611bc657505050565b818155600101611bba565b9092508290611bb1565b9081516001600160401b03811161059657611c0081611bfb60025461052b565b611b13565b602080601f8311600114611c4357508190611c339394600092611c38575b50508160011b916000199060031b1c19161790565b600255565b015190503880611c1e565b90601f19831694611c7660026000527f405787fa12a823e0f2b7631cc41b3ba8828b3321ca811111fa75cd3aa3bb5ace90565b926000905b878210611cb3575050836001959610611c9a575b505050811b01600255565b015160001960f88460031b161c19169055388080611c8f565b80600185968294968601518155019501930190611c7b565b6001600160401b0381116105965760051b60200190565b90611cec82611ccb565b6040611cfb60405192836105d1565b8382528193611d0c601f1991611ccb565b019060005b828110611d1e5750505050565b81519060c08201918083106001600160401b03841117610596576020928452600081528260008183015260006060808785015283015260006080830152600060a0830152828701015201611d11565b90604051611d7a8161057b565b8254815260018301546001600160a01b03166020820152918290608090600490611da6600282016105f2565b6040850152600381015460608501520154910152565b80518210156104725760209160051b010190565b90611dda82611ccb565b604090611dea60405191826105d1565b8381528093611dfb601f1991611ccb565b019160005b838110611e0d5750505050565b6020908251611e1b8161057b565b600081528260008183015260006060808785015283015260006080830152828601015201611e00565b8054600160401b81101561059657611e6191600182018155610804565b919091611e78576020816001925184550151910155565b611afd565b6040519060008260025491611e918361052b565b80835292602090600190818116908115611f1d5750600114611ebc575b5050610634925003836105d1565b91509260026000527f405787fa12a823e0f2b7631cc41b3ba8828b3321ca811111fa75cd3aa3bb5ace936000925b828410611f0557506106349450505081016020013880611eae565b85548885018301529485019487945092810192611eea565b9150506020925061063494915060ff191682840152151560051b8201013880611eae565b60405190611f4e8261059b565b60006020838281520152565b634e487b7160e01b600052601160045260246000fd5b600019810191908211611f7f57565b611f5a565b9190611e7857808203611f95575050565b60018181925484550154910155565b80548015611fcc576000190190611fbb8282610804565b611e78576001816000809355015555565b634e487b7160e01b600052603160045260246000fd5b6000198114611f7f5760010190565b81518155602080830151600180840180546001600160a01b0319166001600160a01b039390931692909217909155919291600284019160408401518051926001600160401b038411610596576120518461204b875461052b565b87611b85565b602092601f851160011461209e57505082600495936080959361208a93600092611c385750508160011b916000199060031b1c19161790565b90555b606081015160038501550151910155565b929190601f198516906120b687600052602060002090565b946000915b8383106120ff575050509260019285926004989660809896106120e6575b505050811b01905561208d565b015160001960f88460031b161c191690553880806120d9565b8486015187559586019594810194918101916120bb565b8054600160401b8110156105965761213391600182018155611124565b819291549060031b91821b91600019901b1916179055565b929360809460c093829399989799865260018060a01b0316602086015260a060408601528160a0860152838501376000828285010152601f80199101168201019460608201520152565b906040516121a28161059b565b602060018294805484520154910152565b6040513d6000823e3d90fd5b9092916001600160401b038111610596576121e4816121de845461052b565b84611b85565b6000601f82116001146122245781906122159394956000926122195750508160011b916000199060031b1c19161790565b9055565b013590503880611c1e565b601f1982169461223984600052602060002090565b91805b87811061227457508360019596971061225a575b505050811b019055565b0135600019600384901b60f8161c19169055388080612250565b9092602060018192868601358155019401910161223c565b63ffffffff168060005260016020526040600020549081156122ac575090565b6024906040519063f6ff4fb760e01b82526004820152fd5b919082604091031261020d5760208235920135611ae18161023f565b91908201809211611f7f57565b6001600160401b0381160361020d57565b35611ae1816122ed565b9190612316918101906122c4565b60018060a01b0316906123366109ed826000526005602052604060002090565b6001600160a01b03831660009081526007602052604090205460005b818110612445575b5050612440907fe2094313e8583be645b0b7dae7644a9a4622cedec32fdba0526baa6cf92d13706020866124026123b17f5ff826288c2830d5528c16e5e46329e74ea8abafb6f2b6d7d4807ed6f64f000f99611ad7565b6123bd604084016122fe565b604080518a81526001600160a01b038c16602082015263ffffffff90931690830152929093013560608401526001600160401b039091166080830152819060a0820190565b0390a1602081810151606092830151604080519687526001600160a01b03978816938701939093529516908401528201929092529081906080820190565b0390a1565b83612466826109ab8860018060a01b03166000526007602052604060002090565b50541461247557600101612352565b82915060207f5ff826288c2830d5528c16e5e46329e74ea8abafb6f2b6d7d4807ed6f64f000f967fe2094313e8583be645b0b7dae7644a9a4622cedec32fdba0526baa6cf92d1370926124f560016124eb6080612440990151936109ab8c60018060a01b03166000526007602052604060002090565b50019182546122e0565b905596505081925061235a565b6000546001600160a01b0316330361251657565b60405163118cdaa760e01b8152336004820152602490fd5b6040519061253b826105b6565b8160008152600060208201526040612551611f41565b910152565b919082604091031261020d5760405161256e8161059b565b6020808294805184520151910152565b9060808282031261020d576125b890604080519361259b856105b6565b8051855260208101516125ad816122ed565b602086015201612556565b604082015290565b906020909392936040835263ffffffff815116604084015281810151606084015260806126146125fe604084015160a08488015260e08701906106ba565b6060840151868203603f190160a08801526106ba565b910151151560c08401526001600160a01b03909416910152565b612697608094926126b3969461264261252e565b50602061264f865161291b565b95019182518061271c575b506126648561228c565b9251151592612680612674610bd2565b63ffffffff9097168752565b602086015260408501526060840152151585830152565b6040518095819482936302637a4560e41b8452600484016125c0565b03917f00000000000000000000000000000000000000000000000000000000000000006001600160a01b03165af1908115611828576000916126f3575090565b611ae1915060803d608011612715575b61270d81836105d1565b81019061257e565b503d612703565b6127259061293d565b3861265a565b9060408282031261020d57611ae191612556565b916127a6919261274d611f41565b506127578161228c565b91604094859361277685519461276c8661057b565b63ffffffff168552565b602084015283830152606082015260006080820152815180938192631bb8518b60e31b83523090600484016125c0565b03817f00000000000000000000000000000000000000000000000000000000000000006001600160a01b03165afa918215611828576000926127e757505090565b611ae19250803d10612806575b6127fe81836105d1565b81019061272b565b503d6127f4565b600281511061281d576002015190565b60405162461bcd60e51b8152602060048201526014602482015273746f55696e7431365f6f75744f66426f756e647360601b6044820152606490fd5b602090612870600495949382815194859201610697565b600160f81b910181815260f09290921b6001600160f01b031916600183015260038201528151916128a990839085840190602001610697565b010190565b9061ffff916003836128bf8361280d565b160361290f5781518381116128f0578316600101928311611f7f57610f16611ae19260405194859360208501612859565b604490604051906306dfcc6560e41b8252601060048301526024820152fd5b8261051560249261280d565b8034036129255790565b6040516304fb820960e51b8152346004820152602490fd5b60405163393f876560e21b81526001600160a01b037f00000000000000000000000000000000000000000000000000000000000000008116926020929091908381600481885afa90811561182857600091612a7e575b5016928315612a6c5760008091612a089360405190868201926323b872dd60e01b845233602484015260448301526064820152606481526129d38161057b565b519082875af13d15612a64573d906129ea82610bdf565b916129f860405193846105d1565b82523d60008584013e5b84612acc565b908151918215159182612a44575b50509050612a215750565b604051635274afe760e01b81526001600160a01b03919091166004820152602490fd5b612a58925080612a5c948301019101612ab4565b1590565b803880612a16565b606090612a02565b6040516329b99a9560e11b8152600490fd5b90508381813d8311612aad575b612a9581836105d1565b8101031261020d5751612aa78161023f565b38612993565b503d612a8b565b9081602091031261020d5751801515810361020d5790565b90612af35750805115612ae157805190602001fd5b604051630a12f52160e11b8152600490fd5b81511580612b26575b612b04575090565b604051639996b31560e01b81526001600160a01b039091166004820152602490fd5b50803b15612afc56fea264697066735822122008a0e01c02bbfdd0e3c240feec6940cfe62c1d92d6ea73759147ed6976501f0164736f6c63430008180033",
  "linkReferences": {},
  "deployedLinkReferences": {}
}