{
  "_format": "hh-sol-artifact-1",
  "contractName": "SubscriptionManager",
  "sourceName": "contracts/SubscriptionManager.sol",
  "abi": [
    {
      "inputs": [
        {
          "internalType": "address",
          "name": "_lzEndpoint",
          "type": "address"
        }
      ],
      "stateMutability": "nonpayable",
      "type": "constructor"
    },
    {
      "inputs": [
        {
          "internalType": "address",
          "name": "target",
          "type": "address"
        }
      ],
      "name": "AddressEmptyCode",
      "type": "error"
    },
    {
      "inputs": [
        {
          "internalType": "address",
          "name": "account",
          "type": "address"
        }
      ],
      "name": "AddressInsufficientBalance",
      "type": "error"
    },
    {
      "inputs": [],
      "name": "FailedInnerCall",
      "type": "error"
    },
    {
      "inputs": [],
      "name": "InvalidDelegate",
      "type": "error"
    },
    {
      "inputs": [],
      "name": "InvalidEndpointCall",
      "type": "error"
    },
    {
      "inputs": [
        {
          "internalType": "uint16",
          "name": "optionType",
          "type": "uint16"
        }
      ],
      "name": "InvalidOptionType",
      "type": "error"
    },
    {
      "inputs": [],
      "name": "LzTokenUnavailable",
      "type": "error"
    },
    {
      "inputs": [
        {
          "internalType": "uint32",
          "name": "eid",
          "type": "uint32"
        }
      ],
      "name": "NoPeer",
      "type": "error"
    },
    {
      "inputs": [
        {
          "internalType": "uint256",
          "name": "msgValue",
          "type": "uint256"
        }
      ],
      "name": "NotEnoughNative",
      "type": "error"
    },
    {
      "inputs": [
        {
          "internalType": "address",
          "name": "addr",
          "type": "address"
        }
      ],
      "name": "OnlyEndpoint",
      "type": "error"
    },
    {
      "inputs": [
        {
          "internalType": "uint32",
          "name": "eid",
          "type": "uint32"
        },
        {
          "internalType": "bytes32",
          "name": "sender",
          "type": "bytes32"
        }
      ],
      "name": "OnlyPeer",
      "type": "error"
    },
    {
      "inputs": [
        {
          "internalType": "address",
          "name": "owner",
          "type": "address"
        }
      ],
      "name": "OwnableInvalidOwner",
      "type": "error"
    },
    {
      "inputs": [
        {
          "internalType": "address",
          "name": "account",
          "type": "address"
        }
      ],
      "name": "OwnableUnauthorizedAccount",
      "type": "error"
    },
    {
      "inputs": [
        {
          "internalType": "uint8",
          "name": "bits",
          "type": "uint8"
        },
        {
          "internalType": "uint256",
          "name": "value",
          "type": "uint256"
        }
      ],
      "name": "SafeCastOverflowedUintDowncast",
      "type": "error"
    },
    {
      "inputs": [
        {
          "internalType": "address",
          "name": "token",
          "type": "address"
        }
      ],
      "name": "SafeERC20FailedOperation",
      "type": "error"
    },
    {
      "inputs": [],
      "name": "SubscriptionManager_EmptyName",
      "type": "error"
    },
    {
      "inputs": [],
      "name": "SubscriptionManager_NotProvider",
      "type": "error"
    },
    {
      "inputs": [],
      "name": "SubscriptionManager_OnlyProvider",
      "type": "error"
    },
    {
      "inputs": [],
      "name": "SubscriptionManager_OnlySubcriber",
      "type": "error"
    },
    {
      "inputs": [],
      "name": "SubscriptionManager_PaymentNotDueYet",
      "type": "error"
    },
    {
      "inputs": [],
      "name": "SubscriptionManager_ZeroAmount",
      "type": "error"
    },
    {
      "inputs": [],
      "name": "SubscriptionManager_ZeroInterval",
      "type": "error"
    },
    {
      "anonymous": false,
      "inputs": [
        {
          "indexed": false,
          "internalType": "uint256",
          "name": "subscriptionId",
          "type": "uint256"
        },
        {
          "indexed": false,
          "internalType": "address",
          "name": "subscriber",
          "type": "address"
        },
        {
          "indexed": false,
          "internalType": "uint32",
          "name": "senderEid",
          "type": "uint32"
        },
        {
          "indexed": false,
          "internalType": "bytes32",
          "name": "sender",
          "type": "bytes32"
        },
        {
          "indexed": false,
          "internalType": "uint64",
          "name": "nonce",
          "type": "uint64"
        }
      ],
      "name": "MessageReceived",
      "type": "event"
    },
    {
      "anonymous": false,
      "inputs": [
        {
          "indexed": false,
          "internalType": "uint256",
          "name": "subscriptionId",
          "type": "uint256"
        },
        {
          "indexed": false,
          "internalType": "address",
          "name": "subscriber",
          "type": "address"
        },
        {
          "indexed": false,
          "internalType": "address",
          "name": "provider",
          "type": "address"
        },
        {
          "indexed": false,
          "internalType": "uint256",
          "name": "amount",
          "type": "uint256"
        },
        {
          "indexed": false,
          "internalType": "uint32",
          "name": "dstEid",
          "type": "uint32"
        }
      ],
      "name": "MessageSent",
      "type": "event"
    },
    {
      "anonymous": false,
      "inputs": [
        {
          "indexed": true,
          "internalType": "address",
          "name": "previousOwner",
          "type": "address"
        },
        {
          "indexed": true,
          "internalType": "address",
          "name": "newOwner",
          "type": "address"
        }
      ],
      "name": "OwnershipTransferred",
      "type": "event"
    },
    {
      "anonymous": false,
      "inputs": [
        {
          "indexed": false,
          "internalType": "uint256",
          "name": "subscriptionId",
          "type": "uint256"
        },
        {
          "indexed": false,
          "internalType": "address",
          "name": "subscriber",
          "type": "address"
        },
        {
          "indexed": false,
          "internalType": "address",
          "name": "provider",
          "type": "address"
        },
        {
          "indexed": false,
          "internalType": "uint256",
          "name": "amount",
          "type": "uint256"
        }
      ],
      "name": "PaymentFinished",
      "type": "event"
    },
    {
      "anonymous": false,
      "inputs": [
        {
          "indexed": false,
          "internalType": "uint256",
          "name": "subscriptionId",
          "type": "uint256"
        },
        {
          "indexed": false,
          "internalType": "address",
          "name": "subscriber",
          "type": "address"
        },
        {
          "indexed": false,
          "internalType": "address",
          "name": "provider",
          "type": "address"
        },
        {
          "indexed": false,
          "internalType": "uint256",
          "name": "amount",
          "type": "uint256"
        }
      ],
      "name": "PaymentInitiated",
      "type": "event"
    },
    {
      "anonymous": false,
      "inputs": [
        {
          "indexed": false,
          "internalType": "uint32",
          "name": "eid",
          "type": "uint32"
        },
        {
          "indexed": false,
          "internalType": "bytes32",
          "name": "peer",
          "type": "bytes32"
        }
      ],
      "name": "PeerSet",
      "type": "event"
    },
    {
      "anonymous": false,
      "inputs": [
        {
          "indexed": false,
          "internalType": "uint256",
          "name": "subscriptionId",
          "type": "uint256"
        },
        {
          "indexed": false,
          "internalType": "address",
          "name": "provider",
          "type": "address"
        },
        {
          "indexed": false,
          "internalType": "string",
          "name": "name",
          "type": "string"
        },
        {
          "indexed": false,
          "internalType": "uint256",
          "name": "amount",
          "type": "uint256"
        },
        {
          "indexed": false,
          "internalType": "uint256",
          "name": "interval",
          "type": "uint256"
        }
      ],
      "name": "SubscriptionCreated",
      "type": "event"
    },
    {
      "anonymous": false,
      "inputs": [
        {
          "indexed": false,
          "internalType": "uint256",
          "name": "subscriptionId",
          "type": "uint256"
        },
        {
          "indexed": false,
          "internalType": "address",
          "name": "subscriber",
          "type": "address"
        }
      ],
      "name": "SubscriptionSubscribed",
      "type": "event"
    },
    {
      "anonymous": false,
      "inputs": [
        {
          "indexed": false,
          "internalType": "uint256",
          "name": "subscriptionId",
          "type": "uint256"
        },
        {
          "indexed": false,
          "internalType": "address",
          "name": "subscriber",
          "type": "address"
        }
      ],
      "name": "SubscriptionUnsubscribed",
      "type": "event"
    },
    {
      "anonymous": false,
      "inputs": [
        {
          "indexed": false,
          "internalType": "uint256",
          "name": "subscriptionId",
          "type": "uint256"
        },
        {
          "indexed": false,
          "internalType": "address",
          "name": "provider",
          "type": "address"
        },
        {
          "indexed": false,
          "internalType": "string",
          "name": "newName",
          "type": "string"
        },
        {
          "indexed": false,
          "internalType": "uint256",
          "name": "newAmount",
          "type": "uint256"
        },
        {
          "indexed": false,
          "internalType": "uint256",
          "name": "newInterval",
          "type": "uint256"
        }
      ],
      "name": "SubscriptionUpdated",
      "type": "event"
    },
    {
      "inputs": [
        {
          "internalType": "address",
          "name": "_addr",
          "type": "address"
        }
      ],
      "name": "addressToBytes32",
      "outputs": [
        {
          "internalType": "bytes32",
          "name": "",
          "type": "bytes32"
        }
      ],
      "stateMutability": "pure",
      "type": "function"
    },
    {
      "inputs": [
        {
          "components": [
            {
              "internalType": "uint32",
              "name": "srcEid",
              "type": "uint32"
            },
            {
              "internalType": "bytes32",
              "name": "sender",
              "type": "bytes32"
            },
            {
              "internalType": "uint64",
              "name": "nonce",
              "type": "uint64"
            }
          ],
          "internalType": "struct Origin",
          "name": "origin",
          "type": "tuple"
        }
      ],
      "name": "allowInitializePath",
      "outputs": [
        {
          "internalType": "bool",
          "name": "",
          "type": "bool"
        }
      ],
      "stateMutability": "view",
      "type": "function"
    },
    {
      "inputs": [
        {
          "internalType": "bytes32",
          "name": "_b",
          "type": "bytes32"
        }
      ],
      "name": "bytes32ToAddress",
      "outputs": [
        {
          "internalType": "address",
          "name": "",
          "type": "address"
        }
      ],
      "stateMutability": "pure",
      "type": "function"
    },
    {
      "inputs": [
        {
          "internalType": "string",
          "name": "_name",
          "type": "string"
        },
        {
          "internalType": "uint256",
          "name": "_amount",
          "type": "uint256"
        },
        {
          "internalType": "uint256",
          "name": "_interval",
          "type": "uint256"
        }
      ],
      "name": "createSubscription",
      "outputs": [],
      "stateMutability": "nonpayable",
      "type": "function"
    },
    {
      "inputs": [],
      "name": "endpoint",
      "outputs": [
        {
          "internalType": "contract ILayerZeroEndpointV2",
          "name": "",
          "type": "address"
        }
      ],
      "stateMutability": "view",
      "type": "function"
    },
    {
      "inputs": [],
      "name": "getAllSubscriptions",
      "outputs": [
        {
          "components": [
            {
              "internalType": "uint256",
              "name": "subscriptionId",
              "type": "uint256"
            },
            {
              "internalType": "address",
              "name": "provider",
              "type": "address"
            },
            {
              "internalType": "string",
              "name": "name",
              "type": "string"
            },
            {
              "internalType": "uint256",
              "name": "amount",
              "type": "uint256"
            },
            {
              "internalType": "uint256",
              "name": "interval",
              "type": "uint256"
            }
          ],
          "internalType": "struct Types.Subscription[]",
          "name": "allSubscriptions",
          "type": "tuple[]"
        }
      ],
      "stateMutability": "view",
      "type": "function"
    },
    {
      "inputs": [
        {
          "internalType": "address",
          "name": "_provider",
          "type": "address"
        }
      ],
      "name": "getAllSubscriptionsForProvider",
      "outputs": [
        {
          "components": [
            {
              "internalType": "uint256",
              "name": "subscriptionId",
              "type": "uint256"
            },
            {
              "internalType": "address",
              "name": "provider",
              "type": "address"
            },
            {
              "internalType": "string",
              "name": "name",
              "type": "string"
            },
            {
              "internalType": "uint256",
              "name": "amount",
              "type": "uint256"
            },
            {
              "internalType": "uint256",
              "name": "interval",
              "type": "uint256"
            }
          ],
          "internalType": "struct Types.Subscription[]",
          "name": "allSubscriptions",
          "type": "tuple[]"
        }
      ],
      "stateMutability": "view",
      "type": "function"
    },
    {
      "inputs": [
        {
          "internalType": "address",
          "name": "_subscriber",
          "type": "address"
        }
      ],
      "name": "getAllSubscriptionsForSubscriber",
      "outputs": [
        {
          "components": [
            {
              "internalType": "uint256",
              "name": "subscriptionId",
              "type": "uint256"
            },
            {
              "internalType": "address",
              "name": "provider",
              "type": "address"
            },
            {
              "internalType": "string",
              "name": "name",
              "type": "string"
            },
            {
              "internalType": "uint256",
              "name": "amount",
              "type": "uint256"
            },
            {
              "internalType": "uint256",
              "name": "interval",
              "type": "uint256"
            },
            {
              "internalType": "uint256",
              "name": "nextPaymentDate",
              "type": "uint256"
            }
          ],
          "internalType": "struct Types.DetailedSubscribedSubscription[]",
          "name": "allSubscriptions",
          "type": "tuple[]"
        }
      ],
      "stateMutability": "view",
      "type": "function"
    },
    {
      "inputs": [
        {
          "components": [
            {
              "internalType": "uint32",
              "name": "srcEid",
              "type": "uint32"
            },
            {
              "internalType": "bytes32",
              "name": "sender",
              "type": "bytes32"
            },
            {
              "internalType": "uint64",
              "name": "nonce",
              "type": "uint64"
            }
          ],
          "internalType": "struct Origin",
          "name": "",
          "type": "tuple"
        },
        {
          "internalType": "bytes",
          "name": "",
          "type": "bytes"
        },
        {
          "internalType": "address",
          "name": "_sender",
          "type": "address"
        }
      ],
      "name": "isComposeMsgSender",
      "outputs": [
        {
          "internalType": "bool",
          "name": "",
          "type": "bool"
        }
      ],
      "stateMutability": "view",
      "type": "function"
    },
    {
      "inputs": [
        {
          "internalType": "string",
          "name": "",
          "type": "string"
        }
      ],
      "name": "lzBlockchainEIDs",
      "outputs": [
        {
          "internalType": "uint32",
          "name": "",
          "type": "uint32"
        }
      ],
      "stateMutability": "view",
      "type": "function"
    },
    {
      "inputs": [
        {
          "components": [
            {
              "internalType": "uint32",
              "name": "srcEid",
              "type": "uint32"
            },
            {
              "internalType": "bytes32",
              "name": "sender",
              "type": "bytes32"
            },
            {
              "internalType": "uint64",
              "name": "nonce",
              "type": "uint64"
            }
          ],
          "internalType": "struct Origin",
          "name": "_origin",
          "type": "tuple"
        },
        {
          "internalType": "bytes32",
          "name": "_guid",
          "type": "bytes32"
        },
        {
          "internalType": "bytes",
          "name": "_message",
          "type": "bytes"
        },
        {
          "internalType": "address",
          "name": "_executor",
          "type": "address"
        },
        {
          "internalType": "bytes",
          "name": "_extraData",
          "type": "bytes"
        }
      ],
      "name": "lzReceive",
      "outputs": [],
      "stateMutability": "payable",
      "type": "function"
    },
    {
      "inputs": [
        {
          "internalType": "uint256",
          "name": "_subscriptionId",
          "type": "uint256"
        },
        {
          "internalType": "string",
          "name": "_preferredBlockchain",
          "type": "string"
        }
      ],
      "name": "makePayment",
      "outputs": [],
      "stateMutability": "payable",
      "type": "function"
    },
    {
      "inputs": [
        {
          "internalType": "uint32",
          "name": "",
          "type": "uint32"
        },
        {
          "internalType": "bytes32",
          "name": "",
          "type": "bytes32"
        }
      ],
      "name": "nextNonce",
      "outputs": [
        {
          "internalType": "uint64",
          "name": "nonce",
          "type": "uint64"
        }
      ],
      "stateMutability": "view",
      "type": "function"
    },
    {
      "inputs": [],
      "name": "oAppVersion",
      "outputs": [
        {
          "internalType": "uint64",
          "name": "senderVersion",
          "type": "uint64"
        },
        {
          "internalType": "uint64",
          "name": "receiverVersion",
          "type": "uint64"
        }
      ],
      "stateMutability": "pure",
      "type": "function"
    },
    {
      "inputs": [],
      "name": "owner",
      "outputs": [
        {
          "internalType": "address",
          "name": "",
          "type": "address"
        }
      ],
      "stateMutability": "view",
      "type": "function"
    },
    {
      "inputs": [
        {
          "internalType": "uint32",
          "name": "eid",
          "type": "uint32"
        }
      ],
      "name": "peers",
      "outputs": [
        {
          "internalType": "bytes32",
          "name": "peer",
          "type": "bytes32"
        }
      ],
      "stateMutability": "view",
      "type": "function"
    },
    {
      "inputs": [
        {
          "internalType": "address",
          "name": "",
          "type": "address"
        },
        {
          "internalType": "uint256",
          "name": "",
          "type": "uint256"
        }
      ],
      "name": "providerToSubscriptions",
      "outputs": [
        {
          "internalType": "uint256",
          "name": "",
          "type": "uint256"
        }
      ],
      "stateMutability": "view",
      "type": "function"
    },
    {
      "inputs": [
        {
          "internalType": "uint256",
          "name": "_subscriptionId",
          "type": "uint256"
        },
        {
          "internalType": "address",
          "name": "_subscriber",
          "type": "address"
        },
        {
          "internalType": "string",
          "name": "_preferredBlockchain",
          "type": "string"
        }
      ],
      "name": "quote",
      "outputs": [
        {
          "components": [
            {
              "internalType": "uint256",
              "name": "nativeFee",
              "type": "uint256"
            },
            {
              "internalType": "uint256",
              "name": "lzTokenFee",
              "type": "uint256"
            }
          ],
          "internalType": "struct MessagingFee",
          "name": "fee",
          "type": "tuple"
        }
      ],
      "stateMutability": "view",
      "type": "function"
    },
    {
      "inputs": [],
      "name": "renounceOwnership",
      "outputs": [],
      "stateMutability": "nonpayable",
      "type": "function"
    },
    {
      "inputs": [
        {
          "internalType": "address",
          "name": "_delegate",
          "type": "address"
        }
      ],
      "name": "setDelegate",
      "outputs": [],
      "stateMutability": "nonpayable",
      "type": "function"
    },
    {
      "inputs": [
        {
          "internalType": "string[]",
          "name": "_blockchains",
          "type": "string[]"
        },
        {
          "internalType": "uint32[]",
          "name": "_eids",
          "type": "uint32[]"
        }
      ],
      "name": "setLzBlockchainEIDs",
      "outputs": [],
      "stateMutability": "nonpayable",
      "type": "function"
    },
    {
      "inputs": [
        {
          "internalType": "uint128",
          "name": "_gas",
          "type": "uint128"
        }
      ],
      "name": "setLzOptions",
      "outputs": [],
      "stateMutability": "nonpayable",
      "type": "function"
    },
    {
      "inputs": [
        {
          "internalType": "uint32",
          "name": "_eid",
          "type": "uint32"
        },
        {
          "internalType": "bytes32",
          "name": "_peer",
          "type": "bytes32"
        }
      ],
      "name": "setPeer",
      "outputs": [],
      "stateMutability": "nonpayable",
      "type": "function"
    },
    {
      "inputs": [
        {
          "internalType": "uint256",
          "name": "_subscriptionId",
          "type": "uint256"
        },
        {
          "internalType": "string",
          "name": "_preferredBlockchain",
          "type": "string"
        }
      ],
      "name": "subscribeSubscription",
      "outputs": [],
      "stateMutability": "payable",
      "type": "function"
    },
    {
      "inputs": [
        {
          "internalType": "address",
          "name": "",
          "type": "address"
        },
        {
          "internalType": "uint256",
          "name": "",
          "type": "uint256"
        }
      ],
      "name": "subscriberToSubscriptions",
      "outputs": [
        {
          "internalType": "uint256",
          "name": "subscriptionId",
          "type": "uint256"
        },
        {
          "internalType": "uint256",
          "name": "nextPaymentDate",
          "type": "uint256"
        }
      ],
      "stateMutability": "view",
      "type": "function"
    },
    {
      "inputs": [],
      "name": "subscriptionCounter",
      "outputs": [
        {
          "internalType": "uint256",
          "name": "",
          "type": "uint256"
        }
      ],
      "stateMutability": "view",
      "type": "function"
    },
    {
      "inputs": [
        {
          "internalType": "uint256",
          "name": "",
          "type": "uint256"
        }
      ],
      "name": "subscriptions",
      "outputs": [
        {
          "internalType": "uint256",
          "name": "subscriptionId",
          "type": "uint256"
        },
        {
          "internalType": "address",
          "name": "provider",
          "type": "address"
        },
        {
          "internalType": "string",
          "name": "name",
          "type": "string"
        },
        {
          "internalType": "uint256",
          "name": "amount",
          "type": "uint256"
        },
        {
          "internalType": "uint256",
          "name": "interval",
          "type": "uint256"
        }
      ],
      "stateMutability": "view",
      "type": "function"
    },
    {
      "inputs": [
        {
          "internalType": "address",
          "name": "newOwner",
          "type": "address"
        }
      ],
      "name": "transferOwnership",
      "outputs": [],
      "stateMutability": "nonpayable",
      "type": "function"
    },
    {
      "inputs": [
        {
          "internalType": "uint256",
          "name": "_subscriptionId",
          "type": "uint256"
        }
      ],
      "name": "unsubscribeSubscription",
      "outputs": [],
      "stateMutability": "nonpayable",
      "type": "function"
    },
    {
      "inputs": [
        {
          "internalType": "uint256",
          "name": "_subscriptionId",
          "type": "uint256"
        },
        {
          "internalType": "string",
          "name": "_newName",
          "type": "string"
        },
        {
          "internalType": "uint256",
          "name": "_newAmount",
          "type": "uint256"
        },
        {
          "internalType": "uint256",
          "name": "_newInterval",
          "type": "uint256"
        }
      ],
      "name": "updateSubscription",
      "outputs": [],
      "stateMutability": "nonpayable",
      "type": "function"
    }
  ],
  "bytecode": "0x60a0604052346200018d5760206200308580380380916200002082620001ba565b60a039126200018d5760a0516001600160a01b038116908190036200018d576200004a33620003e6565b608052331562000192576080516001600160a01b0316803b156200018d5760405163ca5eb5e160e01b8152336004820152906000908290602490829084905af18015620001875762000169575b620000b5620000af620000a96200044c565b6200046b565b620002d3565b620000f3620000e2602f6040516e6f7074696d69736d5365706f6c696160881b81526003600f8201522090565b805463ffffffff1916619d28179055565b6200012d6200011c602b6040516a706f6c79676f6e416d6f7960a81b81526003600b8201522090565b805463ffffffff1916619d4b179055565b604051612a5d90816200062882396080518181816102ae01528181610cf401528181611710015281816125af015281816126a2015261284c0152f35b80620001796200018092620001e7565b80620003ce565b3862000097565b620003da565b600080fd5b604051632d618d8160e21b8152600490fd5b634e487b7160e01b600052604160045260246000fd5b60a0601f91909101601f19168101906001600160401b03821190821017620001e157604052565b620001a4565b6001600160401b038111620001e157604052565b604081019081106001600160401b03821117620001e157604052565b601f909101601f19168101906001600160401b03821190821017620001e157604052565b90600182811c921680156200026d575b60208310146200025757565b634e487b7160e01b600052602260045260246000fd5b91607f16916200024b565b601f811162000285575050565b60009060026000526020600020906020601f850160051c83019410620002c8575b601f0160051c01915b828110620002bc57505050565b818155600101620002af565b9092508290620002a6565b80519091906001600160401b038111620001e157620002ff81620002f96002546200023b565b62000278565b602080601f831160011462000346575081906200033593946000926200033a575b50508160011b916000199060031b1c19161790565b600255565b01519050388062000320565b6002600052601f198316949091907f405787fa12a823e0f2b7631cc41b3ba8828b3321ca811111fa75cd3aa3bb5ace926000905b878210620003b55750508360019596106200039b575b505050811b01600255565b015160001960f88460031b161c1916905538808062000390565b806001859682949686015181550195019301906200037a565b60009103126200018d57565b6040513d6000823e3d90fd5b6001600160a01b0390811690811562000433576000548260018060a01b0319821617600055167f8be0079c531659141344cd1fd0a4f28419497f9722a3daafe3b4186f6b6457e0600080a3565b604051631e4fbdf760e01b815260006004820152602490fd5b604051600360f01b6020820152600281526200046881620001fb565b90565b61ffff906003826200047d8362000563565b16036200053f57604051613d0960861b60208201526010815290620004a282620001fb565b600383620004b08362000563565b16036200051b578151838111620004fc578316600101928311620004f657620004e7620004689260405194859360208501620005e6565b03601f19810183528262000217565b6200054d565b604490604051906306dfcc6560e41b8252601060048301526024820152fd5b826200052960249262000563565b604051633a51740d60e01b815291166004820152fd5b906200052960249262000563565b634e487b7160e01b600052601160045260246000fd5b600281511062000574576002015190565b60405162461bcd60e51b815260206004820152601460248201527f746f55696e7431365f6f75744f66426f756e64730000000000000000000000006044820152606490fd5b9081519160005b838110620005d2575050016000815290565b8060208092840101518185015201620005c0565b91620005fa620004689493600493620005b9565b600160f81b80825260f09290921b6001600160f01b031916600182015260038101919091520190620005b956fe6080604052600436101561001257600080fd5b60003560e01c806313137d65146101f757806317442b70146101f25780632292e030146101ed57806327eddfc7146101e85780632d5bbf60146101e35780633400288b146101de5780633b1611d1146101d95780633f49d27a146101d457806356eb00a1146101cf57806358e15af3146101ca5780635ced058e146101c55780635e280f11146101c0578063715018a6146101bb5780637d25a05e146101b657806380b53c38146101b157806382413eac146101ac57806382c947b7146101a75780638da5cb5b146101a2578063903a82981461019d57806391da06fb14610198578063a5647ef714610193578063aa69bce81461018e578063ae7b697714610189578063bb0b6a5314610184578063c8ae3d5d1461017f578063ca5eb5e11461017a578063ed48083b14610175578063f2fde38b14610170578063f659fe1e1461016b5763ff7bd03d1461016657600080fd5b6119e5565b611936565b6118aa565b611785565b6116df565b6114d0565b611495565b61135c565b611277565b61113e565b6110e2565b6110ac565b611083565b611052565b610ff4565b610dd8565b610d7e565b610d23565b610cde565b610cb7565b610c31565b610afa565b61092a565b610820565b610767565b6106df565b610477565b6103a1565b61034f565b610250565b606090600319011261020d57600490565b600080fd5b9181601f8401121561020d578235916001600160401b03831161020d576020838186019501011161020d57565b6001600160a01b0381160361020d57565b60e036600319011261020d57610265366101fc565b6001600160401b0360843581811161020d57610285903690600401610212565b9161029160a43561023f565b60c43590811161020d576102a9903690600401610212565b5050337f00000000000000000000000000000000000000000000000000000000000000006001600160a01b031603610337576102ec6102e784611a2b565b612184565b926020810135809403610305576103039350612200565b005b61030f8491611a2b565b60405163309afaf360e21b815263ffffffff9190911660048201526024810191909152604490fd5b6040516391ac5e4f60e01b8152336004820152602490fd5b3461020d57600036600319011261020d57604080516001815260026020820152f35b9181601f8401121561020d578235916001600160401b03831161020d576020808501948460051b01011161020d57565b3461020d57604036600319011261020d576001600160401b0360043581811161020d576103d2903690600401610371565b909160243581811161020d576103ec903690600401610371565b6103f79491946123fa565b60005b84811061040357005b81811015610472578060051b90818701359161041e83610759565b840135601e198536030181121561020d57840180359086821161020d5760200192813603841361020d5761045761046c92600195611a38565b9063ffffffff1663ffffffff19825416179055565b016103fa565b6107ee565b3461020d57602036600319011261020d576004356001600160801b038116810361020d576104a36123fa565b604051600360f01b602082015260028152906104be8261059b565b61ffff6003816104cd85612705565b1603610509576103036105048385604051916001600160801b03199060801b166020830152601082526104ff8261059b565b6127a6565b611b2f565b60249061051584612705565b604051633a51740d60e01b815291166004820152fd5b90600182811c9216801561055b575b602083101461054557565b634e487b7160e01b600052602260045260246000fd5b91607f169161053a565b634e487b7160e01b600052604160045260246000fd5b60a081019081106001600160401b0382111761059657604052565b610565565b604081019081106001600160401b0382111761059657604052565b606081019081106001600160401b0382111761059657604052565b90601f801991011681019081106001600160401b0382111761059657604052565b906040519182600082546106058161052b565b908184526020946001916001811690816000146106755750600114610636575b505050610634925003836105d1565b565b600090815285812095935091905b81831061065d5750506106349350820101388080610625565b85548884018501529485019487945091830191610644565b9250505061063494925060ff191682840152151560051b820101388080610625565b60005b8381106106aa5750506000910152565b818101518382015260200161069a565b906020916106d381518092818552858086019101610697565b601f01601f1916010190565b3461020d57602036600319011261020d576004356000908152600560205260409020805460018201546001600160a01b03169161071e600282016105f2565b61074a60046003840154930154916040519586958652602086015260a0604086015260a08501906106ba565b91606084015260808301520390f35b63ffffffff81160361020d57565b3461020d57604036600319011261020d577f238399d427b947898edb290f5ff0f9109849b1c3ba196a42e35f00c50a54b98b6004356107a581610759565b602435906107b16123fa565b63ffffffff81166000526001602052816040600020556107e9604051928392836020909392919363ffffffff60408201951681520152565b0390a1005b634e487b7160e01b600052603260045260246000fd5b80548210156104725760005260206000209060011b0190600090565b3461020d57604036600319011261020d5760043561083d8161023f565b6001600160a01b031660009081526007602052604090208054602435919082101561020d5760409161086e91610804565b506001815491015482519182526020820152f35b6020808201908083528351809252604092604081018260408560051b8401019601946000925b8584106108b9575050505050505090565b909192939495968580600192603f198582030187528a51906108fb60c083518352868060a01b038585015116858401528884015190808a8501528301906106ba565b91606080820151908301526080808201519083015260a0809101519101529901940194019295949391906108a8565b3461020d5760208060031936011261020d576004356109488161023f565b6001600160a01b0381166000908152600760205260409020549061096b82611c36565b9260005b83811061098857604051806109848782610882565b0390f35b806109b06001926109ab8660018060a01b03166000526007602052604060002090565b610804565b5054826109d3836109ab8860018060a01b03166000526007602052604060002090565b5001546109f26109ed836000526005602052604060002090565b611cc1565b808601516001600160a01b0316906040808201516060908184015192610a3260808096015196610a20610ba6565b998a526001600160a01b03168c8a0152565b87015285015283015260a0820152610a4a8288611d10565b52610a558187611d10565b500161096f565b6020808201908083528351809252604092604081018260408560051b8401019601946000925b858410610a93575050505050505090565b909192939495968580600192603f198582030187528a5190610ad560a083518352868060a01b038585015116858401528884015190808a8501528301906106ba565b9160608082015190830152608080910151910152990194019401929594939190610a82565b3461020d57600080600319360112610ba35760049060045490610b1c82611d24565b92815b838110610b3457604051806109848782610a5c565b80600191845260206005815283604080872090805193610b538561057b565b82548552868060a01b03878401541690850152610b72600283016105f2565b908401526003810154606084015201546080820152610b918288611d10565b52610b9c8187611d10565b5001610b1f565b80fd5b6040519060c082018281106001600160401b0382111761059657604052565b604051906106348261059b565b604051906106348261057b565b6001600160401b03811161059657601f01601f191660200190565b929192610c0682610bdf565b91610c1460405193846105d1565b82948184528183011161020d578281602093846000960137010152565b3461020d57602036600319011261020d576004356001600160401b03811161020d573660238201121561020d5763ffffffff610c926020610c7f610984943690602481600401359101610bfa565b8160405193828580945193849201610697565b8101600381520301902054166040519182918291909163ffffffff6020820193169052565b3461020d57602036600319011261020d576040516004356001600160a01b03168152602090f35b3461020d57600036600319011261020d576040517f00000000000000000000000000000000000000000000000000000000000000006001600160a01b03168152602090f35b3461020d57600080600319360112610ba357610d3d6123fa565b80546001600160a01b03198116825581906001600160a01b03167f8be0079c531659141344cd1fd0a4f28419497f9722a3daafe3b4186f6b6457e08280a380f35b3461020d57604036600319011261020d57610d9a600435610759565b602060405160008152f35b90604060031983011261020d5760043591602435906001600160401b03821161020d57610dd491600401610212565b9091565b610de136610da5565b91610df96109ed826000526005602052604060002090565b602081018051919390916001600160a01b03166001600160a01b03163314610fe257610fa7610f147fb303da9fff330570e18ced0ce1b31516609bdeaf9e29a3d1ef67d153aa42eec096610f9f6107e995610e80610e693360018060a01b03166000526007602052604060002090565b610e71610bc5565b908a8252426020830152611d98565b604080518981523360208201527fef4b1ef9428671fea1021c551664a96be3018e9ae31f4a3a8f760fa6ffa685d69190a18051610f41906060906001600160a01b03169a01805160408051602081018d905233918101919091526001600160a01b03909c1660608d015260808c015299610f078160a081015b03601f1981018352826105d1565b610f1e610f14868a611a38565b5463ffffffff1690565b610f26610bc5565b90348252600060208301523392610f3b611dd1565b91612526565b5080518951604080518b81523360208201526001600160a01b039093169083015260608201527fe064501ff0c8345e3c252ac92add47e0e28225460e48f354750dfda9d72df7519080608081015b0390a1516001600160a01b031690565b965193611a38565b604080519485523360208601526001600160a01b0390951694840194909452606083015263ffffffff909216608082015290819060a0820190565b604051630b51d36d60e41b8152600490fd5b3461020d5760a036600319011261020d5761100e366101fc565b506064356001600160401b03811161020d5761102e903690600401610212565b5050602060843561103e8161023f565b6040516001600160a01b0390911630148152f35b3461020d57602036600319011261020d5760206004356110718161023f565b6040516001600160a01b039091168152f35b3461020d57600036600319011261020d576000546040516001600160a01b039091168152602090f35b3461020d57600036600319011261020d576020600454604051908152f35b80548210156104725760005260206000200190600090565b3461020d57604036600319011261020d576004356110ff8161023f565b6001600160a01b031660009081526006602052604090208054602435919082101561020d57602091611130916110ca565b90546040519160031b1c8152f35b3461020d57606036600319011261020d5760243560043561115e8261023f565b604435916001600160401b03831161020d5761124b610f1461124661125a9461118e610984973690600401610212565b929091611199611e95565b5080600052600560205261123860406000206112066040516111ba8161057b565b8254815260018301546001600160a01b031660208201908152906111e0600285016105f2565b60408201526080600460038601549586606085015201549101525160018060a01b031690565b604051998a946020860190949392916060926080830196835260018060a01b0380921660208401521660408201520152565b03601f1981018752866105d1565b611a38565b90611254611dd1565b91612637565b604051918291829190916020806040830194805184520151910152565b3461020d57602036600319011261020d5733600090815260076020526040812054600435825b8281106112c1575b505050156112af57005b6040516347ec9a3160e01b8152600490fd5b33600090815260076020526040902082906112dd908390610804565b5054146112ec5760010161129d565b336000908152600760205260409020600194507f7ffece82c51ed5ecb5a0c0428ca9262a8556bbed6aedd29ec64a812b82f83c2d9350611351929161133b916113359190610804565b90611eae565b6040805191825233602083015290918291820190565b0390a13880806112a5565b3461020d57606036600319011261020d57600480356001600160401b03811161020d5761138c9036908301610212565b604435602435821561148457801561147357811561146257906107e9917fb2fc5da24eb26d43d75f07933c5e06f5ab4be4730986562ccd183155065aa5a39554936113de6113d986611ed5565b600455565b6114556113e9610bd2565b86815233602082019081529061142e9061140436868c610bfa565b6040820152856060820152866080820152611429896000526005602052604060002090565b611ee9565b33600090815260066020526040902061144890889061200e565b516001600160a01b031690565b9560405196879687612043565b604051631bf8707b60e01b81528590fd5b60405163e83b5fdb60e01b81528590fd5b604051633e75c8d560e11b81528590fd5b3461020d57602036600319011261020d5763ffffffff6004356114b781610759565b1660005260016020526020604060002054604051908152f35b6114d936610da5565b3360009081526007602052604081205491939192815b848110611508576040516347ec9a3160e01b8152600490fd5b3360009081526007602052604090208490611524908390610804565b505414611533576001016114ef565b9190611576945061156b6115546109ed866000526005602052604060002090565b336000908152600760205260409020909490610804565b50602095869161208d565b015142106116cd5782850180516060948501805160408051808b018a81523360208201526001600160a01b0390951685830152978401919091527fb303da9fff330570e18ced0ce1b31516609bdeaf9e29a3d1ef67d153aa42eec09991986116bf97919661168595610f149561167d94919361162c93909161160590849060800103601f1981018552846105d1565b611612610f14888c611a38565b9061161b610bc5565b923484528301523392610f3b611dd1565b5080518a5188518b81523360208201526001600160a01b03909216604083015260608201527fe064501ff0c8345e3c252ac92add47e0e28225460e48f354750dfda9d72df751908060808101610f8f565b975193611a38565b91519384523360208501526001600160a01b039094166040840152606083019390935263ffffffff909216608082015290819060a0820190565b0390a13880808080806112af565b604051630aae3de760e01b8152600490fd5b3461020d5760006020366003190112610ba3576004356116fe8161023f565b6117066123fa565b6001600160a01b037f0000000000000000000000000000000000000000000000000000000000000000811691839190833b156117815760249083604051958694859363ca5eb5e160e01b85521660048401525af1801561177c57611768575080f35b6001600160401b0381116105965760405280f35b6120ab565b8280fd5b3461020d57608036600319011261020d576004356024356001600160401b03811161020d576117b8903690600401610212565b9160443560643560206117d86109ed856000526005602052604060002090565b018051909290336001600160a01b039091160361189857856114556107e9947f775eda45052f9ee44781a85efb12d5befaadabad5736ca930785c1b70d3ce14198611872575b83611854575b8461183657516001600160a01b031690565b84600461184d896000526005602052604060002090565b0155611448565b83600361186b896000526005602052604060002090565b0155611824565b6118938389600261188d8b6000526005602052604060002090565b016120b7565b61181e565b604051639f647e2360e01b8152600490fd5b3461020d57602036600319011261020d576004356118c78161023f565b6118cf6123fa565b6001600160a01b03908116801561191d57600080546001600160a01b03198116831782559092167f8be0079c531659141344cd1fd0a4f28419497f9722a3daafe3b4186f6b6457e08380a380f35b604051631e4fbdf760e01b815260006004820152602490fd5b3461020d5760208060031936011261020d576004356119548161023f565b6001600160a01b031660008181526006602081905260408083205493949092919061197e85611d24565b9560005b86811061199757604051806109848a82610a5c565b6001908286528484526119c96109ed6119b2838a8a206110ca565b90549060031b1c6000526005602052604060002090565b6119d3828b611d10565b526119de818a611d10565b5001611982565b3461020d57606036600319011261020d576020611a01366101fc565b63ffffffff8135611a1181610759565b166000526001825260406000205482604051920135148152f35b35611a3581610759565b90565b6020908260405193849283378101600381520301902090565b634e487b7160e01b600052600060045260246000fd5b601f8111611a73575050565b60009060026000527f405787fa12a823e0f2b7631cc41b3ba8828b3321ca811111fa75cd3aa3bb5ace906020601f850160051c83019410611acf575b601f0160051c01915b828110611ac457505050565b818155600101611ab8565b9092508290611aaf565b90601f8111611ae757505050565b6000916000526020600020906020601f850160051c83019410611b25575b601f0160051c01915b828110611b1a57505050565b818155600101611b0e565b9092508290611b05565b9081516001600160401b03811161059657611b5481611b4f60025461052b565b611a67565b602080601f8311600114611b9757508190611b879394600092611b8c575b50508160011b916000199060031b1c19161790565b600255565b015190503880611b72565b90601f19831694611bca60026000527f405787fa12a823e0f2b7631cc41b3ba8828b3321ca811111fa75cd3aa3bb5ace90565b926000905b878210611c07575050836001959610611bee575b505050811b01600255565b015160001960f88460031b161c19169055388080611be3565b80600185968294968601518155019501930190611bcf565b6001600160401b0381116105965760051b60200190565b90611c4082611c1f565b6040611c4f60405192836105d1565b8382528193611c60601f1991611c1f565b019060005b828110611c725750505050565b81519060c08201918083106001600160401b03841117610596576020928452600081528260008183015260006060808785015283015260006080830152600060a0830152828701015201611c65565b90604051611cce8161057b565b8254815260018301546001600160a01b03166020820152918290608090600490611cfa600282016105f2565b6040850152600381015460608501520154910152565b80518210156104725760209160051b010190565b90611d2e82611c1f565b604090611d3e60405191826105d1565b8381528093611d4f601f1991611c1f565b019160005b838110611d615750505050565b6020908251611d6f8161057b565b600081528260008183015260006060808785015283015260006080830152828601015201611d54565b8054600160401b81101561059657611db591600182018155610804565b919091611dcc576020816001925184550151910155565b611a51565b6040519060008260025491611de58361052b565b80835292602090600190818116908115611e715750600114611e10575b5050610634925003836105d1565b91509260026000527f405787fa12a823e0f2b7631cc41b3ba8828b3321ca811111fa75cd3aa3bb5ace936000925b828410611e5957506106349450505081016020013880611e02565b85548885018301529485019487945092810192611e3e565b9150506020925061063494915060ff191682840152151560051b8201013880611e02565b60405190611ea28261059b565b60006020838281520152565b90611dcc5760018160008093550155565b634e487b7160e01b600052601160045260246000fd5b6000198114611ee45760010190565b611ebf565b81518155602080830151600180840180546001600160a01b0319166001600160a01b039390931692909217909155919291600284019160408401518051926001600160401b03841161059657611f4984611f43875461052b565b87611ad9565b602092601f8511600114611f96575050826004959360809593611f8293600092611b8c5750508160011b916000199060031b1c19161790565b90555b606081015160038501550151910155565b929190601f19851690611fae87600052602060002090565b946000915b838310611ff757505050926001928592600498966080989610611fde575b505050811b019055611f85565b015160001960f88460031b161c19169055388080611fd1565b848601518755958601959481019491810191611fb3565b8054600160401b8110156105965761202b916001820181556110ca565b819291549060031b91821b91600019901b1916179055565b929360809460c093829399989799865260018060a01b0316602086015260a060408601528160a0860152838501376000828285010152601f80199101168201019460608201520152565b9060405161209a8161059b565b602060018294805484520154910152565b6040513d6000823e3d90fd5b9092916001600160401b038111610596576120dc816120d6845461052b565b84611ad9565b6000601f821160011461211c57819061210d9394956000926121115750508160011b916000199060031b1c19161790565b9055565b013590503880611b72565b601f1982169461213184600052602060002090565b91805b87811061216c575083600195969710612152575b505050811b019055565b0135600019600384901b60f8161c19169055388080612148565b90926020600181928686013581550194019101612134565b63ffffffff168060005260016020526040600020549081156121a4575090565b6024906040519063f6ff4fb760e01b82526004820152fd5b919082604091031261020d5760208235920135611a358161023f565b91908201809211611ee457565b6001600160401b0381160361020d57565b35611a35816121e5565b919061220e918101906121bc565b60018060a01b03169061222e6109ed826000526005602052604060002090565b6001600160a01b03831660009081526007602052604090205460005b81811061233d575b5050612338907fe2094313e8583be645b0b7dae7644a9a4622cedec32fdba0526baa6cf92d13706020866122fa6122a97f5ff826288c2830d5528c16e5e46329e74ea8abafb6f2b6d7d4807ed6f64f000f99611a2b565b6122b5604084016121f6565b604080518a81526001600160a01b038c16602082015263ffffffff90931690830152929093013560608401526001600160401b039091166080830152819060a0820190565b0390a1602081810151606092830151604080519687526001600160a01b03978816938701939093529516908401528201929092529081906080820190565b0390a1565b8361235e826109ab8860018060a01b03166000526007602052604060002090565b50541461236d5760010161224a565b82915060207f5ff826288c2830d5528c16e5e46329e74ea8abafb6f2b6d7d4807ed6f64f000f967fe2094313e8583be645b0b7dae7644a9a4622cedec32fdba0526baa6cf92d1370926123ed60016123e36080612338990151936109ab8c60018060a01b03166000526007602052604060002090565b50019182546121d8565b9055965050819250612252565b6000546001600160a01b0316330361240e57565b60405163118cdaa760e01b8152336004820152602490fd5b60405190612433826105b6565b8160008152600060208201526040612449611e95565b910152565b919082604091031261020d576040516124668161059b565b6020808294805184520151910152565b9060808282031261020d576124b0906040805193612493856105b6565b8051855260208101516124a5816121e5565b60208601520161244e565b604082015290565b906020909392936040835263ffffffff8151166040840152818101516060840152608061250c6124f6604084015160a08488015260e08701906106ba565b6060840151868203603f190160a08801526106ba565b910151151560c08401526001600160a01b03909416910152565b61258f608094926125ab969461253a612426565b5060206125478651612813565b950191825180612614575b5061255c85612184565b925115159261257861256c610bd2565b63ffffffff9097168752565b602086015260408501526060840152151585830152565b6040518095819482936302637a4560e41b8452600484016124b8565b03917f00000000000000000000000000000000000000000000000000000000000000006001600160a01b03165af190811561177c576000916125eb575090565b611a35915060803d60801161260d575b61260581836105d1565b810190612476565b503d6125fb565b61261d90612835565b38612552565b9060408282031261020d57611a359161244e565b9161269e9192612645611e95565b5061264f81612184565b91604094859361266e8551946126648661057b565b63ffffffff168552565b602084015283830152606082015260006080820152815180938192631bb8518b60e31b83523090600484016124b8565b03817f00000000000000000000000000000000000000000000000000000000000000006001600160a01b03165afa91821561177c576000926126df57505090565b611a359250803d106126fe575b6126f681836105d1565b810190612623565b503d6126ec565b6002815110612715576002015190565b60405162461bcd60e51b8152602060048201526014602482015273746f55696e7431365f6f75744f66426f756e647360601b6044820152606490fd5b602090612768600495949382815194859201610697565b600160f81b910181815260f09290921b6001600160f01b031916600183015260038201528151916127a190839085840190602001610697565b010190565b9061ffff916003836127b783612705565b16036128075781518381116127e8578316600101928311611ee457610ef9611a359260405194859360208501612751565b604490604051906306dfcc6560e41b8252601060048301526024820152fd5b82610515602492612705565b80340361281d5790565b6040516304fb820960e51b8152346004820152602490fd5b60405163393f876560e21b81526001600160a01b037f00000000000000000000000000000000000000000000000000000000000000008116926020929091908381600481885afa90811561177c57600091612976575b501692831561296457600080916129009360405190868201926323b872dd60e01b845233602484015260448301526064820152606481526128cb8161057b565b519082875af13d1561295c573d906128e282610bdf565b916128f060405193846105d1565b82523d60008584013e5b846129c4565b90815191821515918261293c575b505090506129195750565b604051635274afe760e01b81526001600160a01b03919091166004820152602490fd5b6129509250806129549483010191016129ac565b1590565b80388061290e565b6060906128fa565b6040516329b99a9560e11b8152600490fd5b90508381813d83116129a5575b61298d81836105d1565b8101031261020d575161299f8161023f565b3861288b565b503d612983565b9081602091031261020d5751801515810361020d5790565b906129eb57508051156129d957805190602001fd5b604051630a12f52160e11b8152600490fd5b81511580612a1e575b6129fc575090565b604051639996b31560e01b81526001600160a01b039091166004820152602490fd5b50803b156129f456fea26469706673582212202aeda9fc62b1d7636410e817a083bc55b698bb705b81b37cbfdd617567f759f964736f6c63430008180033",
  "linkReferences": {},
  "deployedLinkReferences": {}
}