{
  "_format": "hh-sol-artifact-1",
  "contractName": "PaymentProcessor",
  "sourceName": "contracts/PaymentProcessor.sol",
  "abi": [
    {
      "inputs": [
        {
          "internalType": "address",
          "name": "_endpoint",
          "type": "address"
        },
        {
          "internalType": "address",
          "name": "_router",
          "type": "address"
        },
        {
          "internalType": "address",
          "name": "_usdcToken",
          "type": "address"
        }
      ],
      "stateMutability": "nonpayable",
      "type": "constructor"
    },
    {
      "inputs": [],
      "name": "InvalidDelegate",
      "type": "error"
    },
    {
      "inputs": [],
      "name": "InvalidEndpointCall",
      "type": "error"
    },
    {
      "inputs": [
        {
          "internalType": "uint16",
          "name": "optionType",
          "type": "uint16"
        }
      ],
      "name": "InvalidOptionType",
      "type": "error"
    },
    {
      "inputs": [],
      "name": "LzTokenUnavailable",
      "type": "error"
    },
    {
      "inputs": [
        {
          "internalType": "uint32",
          "name": "eid",
          "type": "uint32"
        }
      ],
      "name": "NoPeer",
      "type": "error"
    },
    {
      "inputs": [
        {
          "internalType": "uint256",
          "name": "msgValue",
          "type": "uint256"
        }
      ],
      "name": "NotEnoughNative",
      "type": "error"
    },
    {
      "inputs": [
        {
          "internalType": "address",
          "name": "addr",
          "type": "address"
        }
      ],
      "name": "OnlyEndpoint",
      "type": "error"
    },
    {
      "inputs": [
        {
          "internalType": "uint32",
          "name": "eid",
          "type": "uint32"
        },
        {
          "internalType": "bytes32",
          "name": "sender",
          "type": "bytes32"
        }
      ],
      "name": "OnlyPeer",
      "type": "error"
    },
    {
      "inputs": [
        {
          "internalType": "address",
          "name": "owner",
          "type": "address"
        }
      ],
      "name": "OwnableInvalidOwner",
      "type": "error"
    },
    {
      "inputs": [
        {
          "internalType": "address",
          "name": "account",
          "type": "address"
        }
      ],
      "name": "OwnableUnauthorizedAccount",
      "type": "error"
    },
    {
      "inputs": [
        {
          "internalType": "uint64",
          "name": "destinationChainSelector",
          "type": "uint64"
        }
      ],
      "name": "PaymentProcessor_DestinationChainNotAllowlisted",
      "type": "error"
    },
    {
      "inputs": [
        {
          "internalType": "address",
          "name": "owner",
          "type": "address"
        },
        {
          "internalType": "address",
          "name": "target",
          "type": "address"
        },
        {
          "internalType": "uint256",
          "name": "value",
          "type": "uint256"
        }
      ],
      "name": "PaymentProcessor_FailedToWithdrawEth",
      "type": "error"
    },
    {
      "inputs": [],
      "name": "PaymentProcessor_InvalidReceiverAddress",
      "type": "error"
    },
    {
      "inputs": [],
      "name": "PaymentProcessor_NotApprovedToTransferUSDCToken",
      "type": "error"
    },
    {
      "inputs": [
        {
          "internalType": "uint256",
          "name": "currentBalance",
          "type": "uint256"
        },
        {
          "internalType": "uint256",
          "name": "calculatedFees",
          "type": "uint256"
        }
      ],
      "name": "PaymentProcessor_NotEnoughBalanceToSendMessage",
      "type": "error"
    },
    {
      "inputs": [
        {
          "internalType": "uint256",
          "name": "currentBalance",
          "type": "uint256"
        },
        {
          "internalType": "uint256",
          "name": "calculatedFees",
          "type": "uint256"
        }
      ],
      "name": "PaymentProcessor_NotEnoughBalanceToTransferTokens",
      "type": "error"
    },
    {
      "inputs": [],
      "name": "PaymentProcessor_NothingToWithdraw",
      "type": "error"
    },
    {
      "inputs": [
        {
          "internalType": "uint8",
          "name": "bits",
          "type": "uint8"
        },
        {
          "internalType": "uint256",
          "name": "value",
          "type": "uint256"
        }
      ],
      "name": "SafeCastOverflowedUintDowncast",
      "type": "error"
    },
    {
      "anonymous": false,
      "inputs": [
        {
          "indexed": false,
          "internalType": "uint256",
          "name": "subscriptionId",
          "type": "uint256"
        },
        {
          "indexed": false,
          "internalType": "address",
          "name": "subscriber",
          "type": "address"
        },
        {
          "indexed": false,
          "internalType": "address",
          "name": "provider",
          "type": "address"
        },
        {
          "indexed": false,
          "internalType": "uint256",
          "name": "amount",
          "type": "uint256"
        },
        {
          "indexed": false,
          "internalType": "uint32",
          "name": "senderEid",
          "type": "uint32"
        },
        {
          "indexed": false,
          "internalType": "bytes32",
          "name": "sender",
          "type": "bytes32"
        },
        {
          "indexed": false,
          "internalType": "uint64",
          "name": "nonce",
          "type": "uint64"
        }
      ],
      "name": "MessageReceived",
      "type": "event"
    },
    {
      "anonymous": false,
      "inputs": [
        {
          "indexed": false,
          "internalType": "uint256",
          "name": "subscriptionId",
          "type": "uint256"
        },
        {
          "indexed": false,
          "internalType": "address",
          "name": "subscriber",
          "type": "address"
        },
        {
          "indexed": false,
          "internalType": "uint32",
          "name": "dstEid",
          "type": "uint32"
        }
      ],
      "name": "MessageSent",
      "type": "event"
    },
    {
      "anonymous": false,
      "inputs": [
        {
          "indexed": true,
          "internalType": "address",
          "name": "previousOwner",
          "type": "address"
        },
        {
          "indexed": true,
          "internalType": "address",
          "name": "newOwner",
          "type": "address"
        }
      ],
      "name": "OwnershipTransferred",
      "type": "event"
    },
    {
      "anonymous": false,
      "inputs": [
        {
          "indexed": false,
          "internalType": "uint32",
          "name": "eid",
          "type": "uint32"
        },
        {
          "indexed": false,
          "internalType": "bytes32",
          "name": "peer",
          "type": "bytes32"
        }
      ],
      "name": "PeerSet",
      "type": "event"
    },
    {
      "anonymous": false,
      "inputs": [
        {
          "indexed": false,
          "internalType": "bytes32",
          "name": "messageId",
          "type": "bytes32"
        },
        {
          "indexed": false,
          "internalType": "uint64",
          "name": "destinationChainSelector",
          "type": "uint64"
        },
        {
          "indexed": false,
          "internalType": "address",
          "name": "receiver",
          "type": "address"
        },
        {
          "indexed": false,
          "internalType": "address",
          "name": "token",
          "type": "address"
        },
        {
          "indexed": false,
          "internalType": "uint256",
          "name": "tokenAmount",
          "type": "uint256"
        },
        {
          "indexed": false,
          "internalType": "address",
          "name": "feeToken",
          "type": "address"
        },
        {
          "indexed": false,
          "internalType": "uint256",
          "name": "fees",
          "type": "uint256"
        }
      ],
      "name": "TokensTransferred",
      "type": "event"
    },
    {
      "inputs": [],
      "name": "SEPOLIA_CHAIN_SELECTOR",
      "outputs": [
        {
          "internalType": "uint64",
          "name": "",
          "type": "uint64"
        }
      ],
      "stateMutability": "view",
      "type": "function"
    },
    {
      "inputs": [],
      "name": "SEPOLIA_EID",
      "outputs": [
        {
          "internalType": "uint32",
          "name": "",
          "type": "uint32"
        }
      ],
      "stateMutability": "view",
      "type": "function"
    },
    {
      "inputs": [
        {
          "internalType": "address",
          "name": "_addr",
          "type": "address"
        }
      ],
      "name": "addressToBytes32",
      "outputs": [
        {
          "internalType": "bytes32",
          "name": "",
          "type": "bytes32"
        }
      ],
      "stateMutability": "pure",
      "type": "function"
    },
    {
      "inputs": [
        {
          "components": [
            {
              "internalType": "uint32",
              "name": "srcEid",
              "type": "uint32"
            },
            {
              "internalType": "bytes32",
              "name": "sender",
              "type": "bytes32"
            },
            {
              "internalType": "uint64",
              "name": "nonce",
              "type": "uint64"
            }
          ],
          "internalType": "struct Origin",
          "name": "origin",
          "type": "tuple"
        }
      ],
      "name": "allowInitializePath",
      "outputs": [
        {
          "internalType": "bool",
          "name": "",
          "type": "bool"
        }
      ],
      "stateMutability": "view",
      "type": "function"
    },
    {
      "inputs": [
        {
          "internalType": "bytes32",
          "name": "_b",
          "type": "bytes32"
        }
      ],
      "name": "bytes32ToAddress",
      "outputs": [
        {
          "internalType": "address",
          "name": "",
          "type": "address"
        }
      ],
      "stateMutability": "pure",
      "type": "function"
    },
    {
      "inputs": [
        {
          "components": [
            {
              "internalType": "uint256",
              "name": "index",
              "type": "uint256"
            },
            {
              "internalType": "uint256",
              "name": "timestamp",
              "type": "uint256"
            },
            {
              "internalType": "bytes32",
              "name": "txHash",
              "type": "bytes32"
            },
            {
              "internalType": "uint256",
              "name": "blockNumber",
              "type": "uint256"
            },
            {
              "internalType": "bytes32",
              "name": "blockHash",
              "type": "bytes32"
            },
            {
              "internalType": "address",
              "name": "source",
              "type": "address"
            },
            {
              "internalType": "bytes32[]",
              "name": "topics",
              "type": "bytes32[]"
            },
            {
              "internalType": "bytes",
              "name": "data",
              "type": "bytes"
            }
          ],
          "internalType": "struct Log",
          "name": "_log",
          "type": "tuple"
        },
        {
          "internalType": "bytes",
          "name": "",
          "type": "bytes"
        }
      ],
      "name": "checkLog",
      "outputs": [
        {
          "internalType": "bool",
          "name": "upkeepNeeded",
          "type": "bool"
        },
        {
          "internalType": "bytes",
          "name": "performData",
          "type": "bytes"
        }
      ],
      "stateMutability": "pure",
      "type": "function"
    },
    {
      "inputs": [],
      "name": "endpoint",
      "outputs": [
        {
          "internalType": "contract ILayerZeroEndpointV2",
          "name": "",
          "type": "address"
        }
      ],
      "stateMutability": "view",
      "type": "function"
    },
    {
      "inputs": [
        {
          "components": [
            {
              "internalType": "uint32",
              "name": "srcEid",
              "type": "uint32"
            },
            {
              "internalType": "bytes32",
              "name": "sender",
              "type": "bytes32"
            },
            {
              "internalType": "uint64",
              "name": "nonce",
              "type": "uint64"
            }
          ],
          "internalType": "struct Origin",
          "name": "",
          "type": "tuple"
        },
        {
          "internalType": "bytes",
          "name": "",
          "type": "bytes"
        },
        {
          "internalType": "address",
          "name": "_sender",
          "type": "address"
        }
      ],
      "name": "isComposeMsgSender",
      "outputs": [
        {
          "internalType": "bool",
          "name": "",
          "type": "bool"
        }
      ],
      "stateMutability": "view",
      "type": "function"
    },
    {
      "inputs": [
        {
          "components": [
            {
              "internalType": "uint32",
              "name": "srcEid",
              "type": "uint32"
            },
            {
              "internalType": "bytes32",
              "name": "sender",
              "type": "bytes32"
            },
            {
              "internalType": "uint64",
              "name": "nonce",
              "type": "uint64"
            }
          ],
          "internalType": "struct Origin",
          "name": "_origin",
          "type": "tuple"
        },
        {
          "internalType": "bytes32",
          "name": "_guid",
          "type": "bytes32"
        },
        {
          "internalType": "bytes",
          "name": "_message",
          "type": "bytes"
        },
        {
          "internalType": "address",
          "name": "_executor",
          "type": "address"
        },
        {
          "internalType": "bytes",
          "name": "_extraData",
          "type": "bytes"
        }
      ],
      "name": "lzReceive",
      "outputs": [],
      "stateMutability": "payable",
      "type": "function"
    },
    {
      "inputs": [
        {
          "internalType": "uint32",
          "name": "",
          "type": "uint32"
        },
        {
          "internalType": "bytes32",
          "name": "",
          "type": "bytes32"
        }
      ],
      "name": "nextNonce",
      "outputs": [
        {
          "internalType": "uint64",
          "name": "nonce",
          "type": "uint64"
        }
      ],
      "stateMutability": "view",
      "type": "function"
    },
    {
      "inputs": [],
      "name": "oAppVersion",
      "outputs": [
        {
          "internalType": "uint64",
          "name": "senderVersion",
          "type": "uint64"
        },
        {
          "internalType": "uint64",
          "name": "receiverVersion",
          "type": "uint64"
        }
      ],
      "stateMutability": "pure",
      "type": "function"
    },
    {
      "inputs": [],
      "name": "owner",
      "outputs": [
        {
          "internalType": "address",
          "name": "",
          "type": "address"
        }
      ],
      "stateMutability": "view",
      "type": "function"
    },
    {
      "inputs": [
        {
          "internalType": "uint32",
          "name": "eid",
          "type": "uint32"
        }
      ],
      "name": "peers",
      "outputs": [
        {
          "internalType": "bytes32",
          "name": "peer",
          "type": "bytes32"
        }
      ],
      "stateMutability": "view",
      "type": "function"
    },
    {
      "inputs": [
        {
          "internalType": "bytes",
          "name": "_performData",
          "type": "bytes"
        }
      ],
      "name": "performUpkeep",
      "outputs": [],
      "stateMutability": "nonpayable",
      "type": "function"
    },
    {
      "inputs": [],
      "name": "renounceOwnership",
      "outputs": [],
      "stateMutability": "nonpayable",
      "type": "function"
    },
    {
      "inputs": [],
      "name": "router",
      "outputs": [
        {
          "internalType": "contract IRouterClient",
          "name": "",
          "type": "address"
        }
      ],
      "stateMutability": "view",
      "type": "function"
    },
    {
      "inputs": [
        {
          "internalType": "address",
          "name": "_delegate",
          "type": "address"
        }
      ],
      "name": "setDelegate",
      "outputs": [],
      "stateMutability": "nonpayable",
      "type": "function"
    },
    {
      "inputs": [
        {
          "internalType": "uint128",
          "name": "_gas",
          "type": "uint128"
        }
      ],
      "name": "setLzOptions",
      "outputs": [],
      "stateMutability": "nonpayable",
      "type": "function"
    },
    {
      "inputs": [
        {
          "internalType": "uint32",
          "name": "_eid",
          "type": "uint32"
        },
        {
          "internalType": "bytes32",
          "name": "_peer",
          "type": "bytes32"
        }
      ],
      "name": "setPeer",
      "outputs": [],
      "stateMutability": "nonpayable",
      "type": "function"
    },
    {
      "inputs": [
        {
          "internalType": "address",
          "name": "newOwner",
          "type": "address"
        }
      ],
      "name": "transferOwnership",
      "outputs": [],
      "stateMutability": "nonpayable",
      "type": "function"
    },
    {
      "inputs": [],
      "name": "usdcToken",
      "outputs": [
        {
          "internalType": "address",
          "name": "",
          "type": "address"
        }
      ],
      "stateMutability": "view",
      "type": "function"
    },
    {
      "inputs": [
        {
          "internalType": "address",
          "name": "_beneficiary",
          "type": "address"
        }
      ],
      "name": "withdraw",
      "outputs": [],
      "stateMutability": "nonpayable",
      "type": "function"
    },
    {
      "stateMutability": "payable",
      "type": "receive"
    }
  ],
  "bytecode": "0x60a06040523462000173576060620021a280380380916200002082620001a0565b60a0391262000173576200003362000221565b6200003d62000238565b620000476200024f565b90620000533362000411565b6001600160a01b03928316608052331562000178576080516001600160a01b031692833b15620001735760405163ca5eb5e160e01b8152336004820152936000908590602490829084905af19182156200016d576200011a94620000f8936200014f575b50620000d6620000d0620000ca62000477565b62000496565b620002fe565b60038054919092166001600160a01b03166001600160a01b0319909116179055565b600480546001600160a01b0319166001600160a01b0392909216919091179055565b604051611b4f9081620006538239608051818181610256015281816107be0152818161099801528181610bb001526117790152f35b806200015f6200016692620001cd565b80620003f9565b38620000b7565b62000405565b600080fd5b604051632d618d8160e21b8152600490fd5b634e487b7160e01b600052604160045260246000fd5b60a0601f91909101601f19168101906001600160401b03821190821017620001c757604052565b6200018a565b6001600160401b038111620001c757604052565b604081019081106001600160401b03821117620001c757604052565b601f909101601f19168101906001600160401b03821190821017620001c757604052565b60a051906001600160a01b03821682036200017357565b60c051906001600160a01b03821682036200017357565b60e051906001600160a01b03821682036200017357565b90600182811c9216801562000298575b60208310146200028257565b634e487b7160e01b600052602260045260246000fd5b91607f169162000276565b601f8111620002b0575050565b60009060026000526020600020906020601f850160051c83019410620002f3575b601f0160051c01915b828110620002e757505050565b818155600101620002da565b9092508290620002d1565b80519091906001600160401b038111620001c7576200032a816200032460025462000266565b620002a3565b602080601f8311600114620003715750819062000360939460009262000365575b50508160011b916000199060031b1c19161790565b600255565b0151905038806200034b565b6002600052601f198316949091907f405787fa12a823e0f2b7631cc41b3ba8828b3321ca811111fa75cd3aa3bb5ace926000905b878210620003e0575050836001959610620003c6575b505050811b01600255565b015160001960f88460031b161c19169055388080620003bb565b80600185968294968601518155019501930190620003a5565b60009103126200017357565b6040513d6000823e3d90fd5b6001600160a01b039081169081156200045e576000548260018060a01b0319821617600055167f8be0079c531659141344cd1fd0a4f28419497f9722a3daafe3b4186f6b6457e0600080a3565b604051631e4fbdf760e01b815260006004820152602490fd5b604051600360f01b6020820152600281526200049381620001e1565b90565b61ffff90600382620004a8836200058e565b16036200056a57604051613d0960861b60208201526010815290620004cd82620001e1565b600383620004db836200058e565b1603620005465781518381116200052757831660010192831162000521576200051262000493926040519485936020850162000611565b03601f198101835282620001fd565b62000578565b604490604051906306dfcc6560e41b8252601060048301526024820152fd5b82620005546024926200058e565b604051633a51740d60e01b815291166004820152fd5b90620005546024926200058e565b634e487b7160e01b600052601160045260246000fd5b60028151106200059f576002015190565b60405162461bcd60e51b815260206004820152601460248201527f746f55696e7431365f6f75744f66426f756e64730000000000000000000000006044820152606490fd5b9081519160005b838110620005fd575050016000815290565b8060208092840101518185015201620005eb565b9162000625620004939493600493620005e4565b600160f81b80825260f09290921b6001600160f01b031916600182015260038101919091520190620005e456fe6080604052600436101561001b575b361561001957600080fd5b005b60003560e01c806311eac8551461017b57806313137d651461017657806317442b701461017157806327eddfc71461016c5780633400288b1461016757806340691db4146101625780634585e33b1461015d57806351cff8d9146101585780635ced058e146101535780635e280f111461014e578063715018a6146101495780637d25a05e1461014457806382413eac1461013f57806382c947b71461013a5780638da5cb5b146101355780639dade75014610130578063a48528731461012b578063bb0b6a5314610126578063ca5eb5e114610121578063f2fde38b1461011c578063f887ea40146101175763ff7bd03d0361000e57610cd5565b610cac565b610c20565b610b7f565b610b44565b610b27565b610b04565b610adb565b610aaa565b610a4c565b610a25565b6109c7565b610982565b61095b565b6108cf565b61064b565b6105d0565b6103dd565b61031b565b6102f9565b6101f8565b346101a45760003660031901126101a4576004546040516001600160a01b039091168152602090f35b600080fd5b60609060031901126101a457600490565b9181601f840112156101a4578235916001600160401b0383116101a457602083818601950101116101a457565b6001600160a01b038116036101a457565b60e03660031901126101a45761020d366101a9565b6001600160401b036084358181116101a45761022d9036906004016101ba565b9161023960a4356101e7565b60c4359081116101a4576102519036906004016101ba565b5050337f00000000000000000000000000000000000000000000000000000000000000006001600160a01b0316036102e15761029461028f84610d1b565b6111c3565b9260208101358094036102ab5761001993506111e3565b6102b58491610d1b565b60405163309afaf360e21b815263ffffffff9190911660048201526024810191909152604490fd5b0390fd5b6040516391ac5e4f60e01b8152336004820152602490fd5b346101a45760003660031901126101a457604080516001815260026020820152f35b346101a45760203660031901126101a4576004356001600160801b03811681036101a457610347611298565b604051600360f01b602082015260028152906103628261047a565b61ffff600381610371856117f2565b16036103ad576100196103a88385604051916001600160801b03199060801b166020830152601082526103a38261047a565b611893565b610dd1565b6024906103b9846117f2565b604051633a51740d60e01b815291166004820152fd5b63ffffffff8116036101a457565b346101a45760403660031901126101a4577f238399d427b947898edb290f5ff0f9109849b1c3ba196a42e35f00c50a54b98b60043561041b816103cf565b60243590610427611298565b63ffffffff811660005260016020528160406000205561045f604051928392836020909392919363ffffffff60408201951681520152565b0390a1005b634e487b7160e01b600052604160045260246000fd5b604081019081106001600160401b0382111761049557604052565b610464565b60a081019081106001600160401b0382111761049557604052565b602081019081106001600160401b0382111761049557604052565b90601f801991011681019081106001600160401b0382111761049557604052565b604051906104fe8261049a565b565b604051906104fe8261047a565b604051906104fe826104b5565b6001600160401b03811161049557601f01601f191660200190565b9291926105418261051a565b9161054f60405193846104d0565b8294818452818301116101a4578281602093846000960137010152565b60005b83811061057f5750506000910152565b818101518382015260200161056f565b906020916105a88151809281855285808601910161056c565b601f01601f1916010190565b6040906105cd939215158152816020820152019061058f565b90565b346101a4576003196040368201126101a4576004356001600160401b03918282116101a4576101009082360301126101a4576024359182116101a457366023830112156101a45761062e610637923690602481600401359101610535565b50600401610ec1565b90610647604051928392836105b4565b0390f35b346101a4576020806003193601126101a457600480356001600160401b0381116101a45761067f61068791369084016101ba565b810190610f13565b5050855492966001600160a01b03948516969493909291506106b29084165b6001600160a01b031690565b60408051636eb1769f60e11b81526001600160a01b038916878201908152306020820152919992918590829081908d0103818986165afa80156108685784916000916108a2575b50036108925782916107126107189487938b30916112c4565b166114c8565b85518181018581526001600160a01b03871660208201526107479082906040015b03601f1981018352826104d0565b610758610752610f82565b8261171a565b805147811161086d575091608093916107ba9895935190610777611171565b61077f6104f1565b619ce181529384015286830152610794610f82565b606083015260008583015285518099819582946302637a4560e41b8452309184016110c0565b03927f0000000000000000000000000000000000000000000000000000000000000000165af1908115610868577f4887a81be537bcde2409705083bbc69ffca921111df30596bd6c81fe71f931dc9461045f92610839575b50519182526001600160a01b039092166020820152619ce160408201529081906060820190565b61085a9060803d608011610861575b61085281836104d0565b81019061106e565b5038610812565b503d610848565b610f76565b885163242c5d3f60e21b81524781880190815260208101929092529081906040010390fd5b8851635f90994760e11b81528690fd5b6108c29150863d88116108c8575b6108ba81836104d0565b810190610f67565b386106f9565b503d6108b0565b346101a45760203660031901126101a4576004356108ec816101e7565b6108f4611298565b478015610949576000918280808085855af161090e611141565b5015610918578280f35b604051630433adeb60e01b81523360048201526001600160a01b039190911660248201526044810191909152606490fd5b6040516354ac509760e01b8152600490fd5b346101a45760203660031901126101a4576040516004356001600160a01b03168152602090f35b346101a45760003660031901126101a4576040517f00000000000000000000000000000000000000000000000000000000000000006001600160a01b03168152602090f35b346101a457600080600319360112610a22576109e1611298565b80546001600160a01b03198116825581906001600160a01b03167f8be0079c531659141344cd1fd0a4f28419497f9722a3daafe3b4186f6b6457e08280a380f35b80fd5b346101a45760403660031901126101a457610a416004356103cf565b602060405160008152f35b346101a45760a03660031901126101a457610a66366101a9565b506064356001600160401b0381116101a457610a869036906004016101ba565b50506020608435610a96816101e7565b6040516001600160a01b0390911630148152f35b346101a45760203660031901126101a4576020600435610ac9816101e7565b6040516001600160a01b039091168152f35b346101a45760003660031901126101a4576000546040516001600160a01b039091168152602090f35b346101a45760003660031901126101a457602060405167de41ba4fc9d91ad98152f35b346101a45760003660031901126101a4576020604051619ce18152f35b346101a45760203660031901126101a45763ffffffff600435610b66816103cf565b1660005260016020526020604060002054604051908152f35b346101a45760006020366003190112610a2257600435610b9e816101e7565b610ba6611298565b6001600160a01b037f0000000000000000000000000000000000000000000000000000000000000000811691839190833b15610c1c5760249083604051958694859363ca5eb5e160e01b85521660048401525af1801561086857610c08575080f35b6001600160401b0381116104955760405280f35b8280fd5b346101a45760203660031901126101a457600435610c3d816101e7565b610c45611298565b6001600160a01b039081168015610c9357600080546001600160a01b03198116831782559092167f8be0079c531659141344cd1fd0a4f28419497f9722a3daafe3b4186f6b6457e08380a380f35b604051631e4fbdf760e01b815260006004820152602490fd5b346101a45760003660031901126101a4576003546040516001600160a01b039091168152602090f35b346101a45760603660031901126101a4576020610cf1366101a9565b63ffffffff8135610d01816103cf565b166000526001825260406000205482604051920135148152f35b356105cd816103cf565b90600182811c92168015610d55575b6020831014610d3f57565b634e487b7160e01b600052602260045260246000fd5b91607f1691610d34565b601f8111610d6b575050565b60009060026000527f405787fa12a823e0f2b7631cc41b3ba8828b3321ca811111fa75cd3aa3bb5ace906020601f850160051c83019410610dc7575b601f0160051c01915b828110610dbc57505050565b818155600101610db0565b9092508290610da7565b9081516001600160401b03811161049557610df681610df1600254610d25565b610d5f565b602080601f8311600114610e3957508190610e299394600092610e2e575b50508160011b916000199060031b1c19161790565b600255565b015190503880610e14565b90601f19831694610e6c60026000527f405787fa12a823e0f2b7631cc41b3ba8828b3321ca811111fa75cd3aa3bb5ace90565b926000905b878210610ea9575050836001959610610e90575b505050811b01600255565b015160001960f88460031b161c19169055388080610e85565b80600185968294968601518155019501930190610e71565b9060019160e081013590601e19813603018212156101a457018035906001600160401b0382116101a45760200181360381136101a4576105cd913691610535565b6001600160401b038116036101a457565b908160e09103126101a4578035916020820135610f2f816101e7565b916040810135610f3e816101e7565b916060820135916080810135610f53816103cf565b9160c060a08301359201356105cd81610f02565b908160209103126101a4575190565b6040513d6000823e3d90fd5b6040519060008260025491610f9683610d25565b808352926020906001908181169081156110225750600114610fc1575b50506104fe925003836104d0565b91509260026000527f405787fa12a823e0f2b7631cc41b3ba8828b3321ca811111fa75cd3aa3bb5ace936000925b82841061100a57506104fe9450505081016020013880610fb3565b85548885018301529485019487945092810192610fef565b915050602092506104fe94915060ff191682840152151560051b8201013880610fb3565b91908260409103126101a45760405161105e8161047a565b6020808294805184520151910152565b6080818303126101a45760405191606083018381106001600160401b03821117610495576110b89260409182528051855260208101516110ad81610f02565b602086015201611046565b604082015290565b906020909392936040835263ffffffff815116604084015281810151606084015260806111146110fe604084015160a08488015260e087019061058f565b6060840151868203603f190160a088015261058f565b910151151560c08401526001600160a01b03909416910152565b6040519061113b826104b5565b60008252565b3d1561116c573d906111528261051a565b9161116060405193846104d0565b82523d6000602084013e565b606090565b619ce1600081905260016020527f3d84927861c505bc2c9219a8249bfe688f929cd4e8b032c159daa62ce1a4db58549081156111ab575090565b6024906040519063f6ff4fb760e01b82526004820152fd5b63ffffffff168060005260016020526040600020549081156111ab575090565b9181608091810103126101a4577f6f49d647cac89c64aabc9971647c3c96d048d5a2f691e4b954d9c370995aaf62916001600160401b038260208060e09501359361122d856101e7565b63ffffffff604084013593611241856101e7565b8235906060906001600160a01b03611258846103cf565b60408601359761126789610f02565b816040519b84358d5216888c01521660408a015201356060880152166080860152013560a08401521660c0820152a1565b6000546001600160a01b031633036112ac57565b60405163118cdaa760e01b8152336004820152602490fd5b6040516323b872dd60e01b60208083019182526001600160a01b03948516602484015294909316604482015260648082019590955293845291926113679290919060009081906113156084866104d0565b60018060a01b0316926040519461132b8661047a565b8786527f5361666545524332303a206c6f772d6c6576656c2063616c6c206661696c656488870152519082855af1611361611141565b91611a80565b8051908161137457505050565b82806113849383010191016114b0565b1561138c5750565b6084906040519062461bcd60e51b82526004820152602a60248201527f5361666545524332303a204552433230206f7065726174696f6e20646964206e6044820152691bdd081cdd58d8d9595960b21b6064820152fd5b919091604067de41ba4fc9d91ad98252602091604083820152611412855160a0604084015260e083019061058f565b9161142e8487015193603f19948585830301606086015261058f565b604087015194848483030160808501528080875193848152019601926000905b8382106114875750505060608701516001600160a01b031660a08401525093946105cd945060c09060800151928285030191015261058f565b845180516001600160a01b0316895283015188840152968701969382019360019091019061144e565b908160209103126101a4575180151581036101a45790565b6114d28282611964565b6003546114e7906001600160a01b03166106a6565b6040516320487ded60e01b8152602094600493919286848061150b868983016113e3565b0381845afa938415610868576000946116ce575b504784116116a9578682611576926115436106a66106a68a5460018060a01b031690565b90600060405180968195829463095ea7b360e01b84528d840160209093929193604081019460018060a01b031681520152565b03925af1801561086857849388926115bf9261167c575b506003546115a3906001600160a01b03166106a6565b906040519687809481936396f4e9f960e01b83528b83016113e3565b03925af1928315610868577fc15fb748c32ba4eb29c1c311e78533f93b4425eab49ea87c6fe4279ecadca04396600094611657575b505092549192611652926001600160a01b03165b604051958695869160c093969594919660e0840197845267de41ba4fc9d91ad9602085015260018060a01b0380921660408501521660608301526080820152600060a08201520152565b0390a1565b6116529450611608918161167692903d106108c8576108ba81836104d0565b936115f4565b61169b90843d86116116a2575b61169381836104d0565b8101906114b0565b503861158d565b503d611689565b604080516376cf9cbf60e11b8152478188019081526020810187905290918291010390fd5b6116e6919450873d89116108c8576108ba81836104d0565b923861151f565b604051906116fa8261047a565b60006020838281520152565b906040828203126101a4576105cd91611046565b611775906117266116ed565b5061172f611171565b60409384928351926117408461049a565b619ce18452602084015283830152606082015260006080820152815180938192631bb8518b60e31b83523090600484016110c0565b03817f00000000000000000000000000000000000000000000000000000000000000006001600160a01b03165afa918215610868576000926117b657505090565b6105cd9250803d106117d5575b6117cd81836104d0565b810190611706565b503d6117c3565b634e487b7160e01b600052601160045260246000fd5b6002815110611802576002015190565b60405162461bcd60e51b8152602060048201526014602482015273746f55696e7431365f6f75744f66426f756e647360601b6044820152606490fd5b60209061185560049594938281519485920161056c565b600160f81b910181815260f09290921b6001600160f01b0319166001830152600382015281519161188e9083908584019060200161056c565b010190565b9061ffff916003836118a4836117f2565b16036118f95781518381116118da5783166001019283116118d5576107396105cd926040519485936020850161183e565b6117dc565b604490604051906306dfcc6560e41b8252601060048301526024820152fd5b826103b96024926117f2565b604051906119128261047a565b600182528160005b6020908181101561193c576020916119306116ed565b9082850101520161191a565b505050565b80511561194e5760200190565b634e487b7160e01b600052603260045260246000fd5b9060006080611a0d6119ff9460405161197c8161049a565b60609381858093528260208201528260408201528683820152015261199f611905565b6004549095906001600160a01b0316906119c96119ba610500565b6001600160a01b039093168352565b60208201526119d786611941565b526119e185611941565b50604080516001600160a01b03909216602083015290958691820190565b03601f1981018652856104d0565b611a20611a1861050d565b838152611a49565b92611a296104f1565b948552611a3461112e565b60208601526040850152830152608082015290565b604051906397a657c960e01b602083015251602482015260248152606081018181106001600160401b038211176104955760405290565b91929015611ae25750815115611a94575090565b3b15611a9d5790565b60405162461bcd60e51b815260206004820152601d60248201527f416464726573733a2063616c6c20746f206e6f6e2d636f6e74726163740000006044820152606490fd5b825190915015611af55750805190602001fd5b60405162461bcd60e51b8152602060048201529081906102dd90602483019061058f56fea26469706673582212206e62a9024b55d62f30304e9ac771419a557267cf621a1f3df0e3f5743570cfcc64736f6c63430008180033",
  "linkReferences": {},
  "deployedLinkReferences": {}
}