{
  "_format": "hh-sol-artifact-1",
  "contractName": "PaymentProcessor",
  "sourceName": "contracts/PaymentProcessor.sol",
  "abi": [
    {
      "inputs": [
        {
          "internalType": "address",
          "name": "_endpoint",
          "type": "address"
        },
        {
          "internalType": "address",
          "name": "_router",
          "type": "address"
        },
        {
          "internalType": "address",
          "name": "_usdc",
          "type": "address"
        }
      ],
      "stateMutability": "nonpayable",
      "type": "constructor"
    },
    {
      "inputs": [],
      "name": "InvalidDelegate",
      "type": "error"
    },
    {
      "inputs": [],
      "name": "InvalidEndpointCall",
      "type": "error"
    },
    {
      "inputs": [
        {
          "internalType": "uint16",
          "name": "optionType",
          "type": "uint16"
        }
      ],
      "name": "InvalidOptionType",
      "type": "error"
    },
    {
      "inputs": [],
      "name": "LzTokenUnavailable",
      "type": "error"
    },
    {
      "inputs": [
        {
          "internalType": "uint32",
          "name": "eid",
          "type": "uint32"
        }
      ],
      "name": "NoPeer",
      "type": "error"
    },
    {
      "inputs": [
        {
          "internalType": "uint256",
          "name": "msgValue",
          "type": "uint256"
        }
      ],
      "name": "NotEnoughNative",
      "type": "error"
    },
    {
      "inputs": [
        {
          "internalType": "address",
          "name": "addr",
          "type": "address"
        }
      ],
      "name": "OnlyEndpoint",
      "type": "error"
    },
    {
      "inputs": [
        {
          "internalType": "uint32",
          "name": "eid",
          "type": "uint32"
        },
        {
          "internalType": "bytes32",
          "name": "sender",
          "type": "bytes32"
        }
      ],
      "name": "OnlyPeer",
      "type": "error"
    },
    {
      "inputs": [
        {
          "internalType": "address",
          "name": "owner",
          "type": "address"
        }
      ],
      "name": "OwnableInvalidOwner",
      "type": "error"
    },
    {
      "inputs": [
        {
          "internalType": "address",
          "name": "account",
          "type": "address"
        }
      ],
      "name": "OwnableUnauthorizedAccount",
      "type": "error"
    },
    {
      "inputs": [
        {
          "internalType": "uint64",
          "name": "destinationChainSelector",
          "type": "uint64"
        }
      ],
      "name": "PaymentProcessor_DestinationChainNotAllowlisted",
      "type": "error"
    },
    {
      "inputs": [
        {
          "internalType": "address",
          "name": "owner",
          "type": "address"
        },
        {
          "internalType": "address",
          "name": "target",
          "type": "address"
        },
        {
          "internalType": "uint256",
          "name": "value",
          "type": "uint256"
        }
      ],
      "name": "PaymentProcessor_FailedToWithdrawEth",
      "type": "error"
    },
    {
      "inputs": [],
      "name": "PaymentProcessor_InvalidReceiverAddress",
      "type": "error"
    },
    {
      "inputs": [],
      "name": "PaymentProcessor_NotApprovedToTransferUSDCToken",
      "type": "error"
    },
    {
      "inputs": [
        {
          "internalType": "uint256",
          "name": "currentBalance",
          "type": "uint256"
        },
        {
          "internalType": "uint256",
          "name": "calculatedFees",
          "type": "uint256"
        }
      ],
      "name": "PaymentProcessor_NotEnoughBalanceToSendMessage",
      "type": "error"
    },
    {
      "inputs": [
        {
          "internalType": "uint256",
          "name": "currentBalance",
          "type": "uint256"
        },
        {
          "internalType": "uint256",
          "name": "calculatedFees",
          "type": "uint256"
        }
      ],
      "name": "PaymentProcessor_NotEnoughBalanceToTransferTokens",
      "type": "error"
    },
    {
      "inputs": [],
      "name": "PaymentProcessor_NothingToWithdraw",
      "type": "error"
    },
    {
      "inputs": [
        {
          "internalType": "uint8",
          "name": "bits",
          "type": "uint8"
        },
        {
          "internalType": "uint256",
          "name": "value",
          "type": "uint256"
        }
      ],
      "name": "SafeCastOverflowedUintDowncast",
      "type": "error"
    },
    {
      "anonymous": false,
      "inputs": [
        {
          "indexed": false,
          "internalType": "uint256",
          "name": "subscriptionId",
          "type": "uint256"
        },
        {
          "indexed": false,
          "internalType": "address",
          "name": "user",
          "type": "address"
        },
        {
          "indexed": false,
          "internalType": "address",
          "name": "serviceProviderAddress",
          "type": "address"
        },
        {
          "indexed": false,
          "internalType": "uint256",
          "name": "amount",
          "type": "uint256"
        },
        {
          "indexed": false,
          "internalType": "uint32",
          "name": "senderEid",
          "type": "uint32"
        },
        {
          "indexed": false,
          "internalType": "bytes32",
          "name": "sender",
          "type": "bytes32"
        },
        {
          "indexed": false,
          "internalType": "uint64",
          "name": "nonce",
          "type": "uint64"
        }
      ],
      "name": "MessageReceived",
      "type": "event"
    },
    {
      "anonymous": false,
      "inputs": [
        {
          "indexed": false,
          "internalType": "uint256",
          "name": "subscriptionId",
          "type": "uint256"
        },
        {
          "indexed": false,
          "internalType": "uint32",
          "name": "dstEid",
          "type": "uint32"
        }
      ],
      "name": "MessageSent",
      "type": "event"
    },
    {
      "anonymous": false,
      "inputs": [
        {
          "indexed": true,
          "internalType": "address",
          "name": "previousOwner",
          "type": "address"
        },
        {
          "indexed": true,
          "internalType": "address",
          "name": "newOwner",
          "type": "address"
        }
      ],
      "name": "OwnershipTransferred",
      "type": "event"
    },
    {
      "anonymous": false,
      "inputs": [
        {
          "indexed": false,
          "internalType": "uint32",
          "name": "eid",
          "type": "uint32"
        },
        {
          "indexed": false,
          "internalType": "bytes32",
          "name": "peer",
          "type": "bytes32"
        }
      ],
      "name": "PeerSet",
      "type": "event"
    },
    {
      "anonymous": false,
      "inputs": [
        {
          "indexed": true,
          "internalType": "bytes32",
          "name": "messageId",
          "type": "bytes32"
        },
        {
          "indexed": true,
          "internalType": "uint64",
          "name": "destinationChainSelector",
          "type": "uint64"
        },
        {
          "indexed": false,
          "internalType": "address",
          "name": "receiver",
          "type": "address"
        },
        {
          "indexed": false,
          "internalType": "address",
          "name": "token",
          "type": "address"
        },
        {
          "indexed": false,
          "internalType": "uint256",
          "name": "tokenAmount",
          "type": "uint256"
        },
        {
          "indexed": false,
          "internalType": "address",
          "name": "feeToken",
          "type": "address"
        },
        {
          "indexed": false,
          "internalType": "uint256",
          "name": "fees",
          "type": "uint256"
        }
      ],
      "name": "TokensTransferred",
      "type": "event"
    },
    {
      "inputs": [],
      "name": "SEPOLIA_CHAIN_SELECTOR",
      "outputs": [
        {
          "internalType": "uint64",
          "name": "",
          "type": "uint64"
        }
      ],
      "stateMutability": "view",
      "type": "function"
    },
    {
      "inputs": [],
      "name": "SEPOLIA_EID",
      "outputs": [
        {
          "internalType": "uint32",
          "name": "",
          "type": "uint32"
        }
      ],
      "stateMutability": "view",
      "type": "function"
    },
    {
      "inputs": [
        {
          "internalType": "address",
          "name": "_addr",
          "type": "address"
        }
      ],
      "name": "addressToBytes32",
      "outputs": [
        {
          "internalType": "bytes32",
          "name": "",
          "type": "bytes32"
        }
      ],
      "stateMutability": "pure",
      "type": "function"
    },
    {
      "inputs": [
        {
          "components": [
            {
              "internalType": "uint32",
              "name": "srcEid",
              "type": "uint32"
            },
            {
              "internalType": "bytes32",
              "name": "sender",
              "type": "bytes32"
            },
            {
              "internalType": "uint64",
              "name": "nonce",
              "type": "uint64"
            }
          ],
          "internalType": "struct Origin",
          "name": "origin",
          "type": "tuple"
        }
      ],
      "name": "allowInitializePath",
      "outputs": [
        {
          "internalType": "bool",
          "name": "",
          "type": "bool"
        }
      ],
      "stateMutability": "view",
      "type": "function"
    },
    {
      "inputs": [
        {
          "internalType": "bytes32",
          "name": "_b",
          "type": "bytes32"
        }
      ],
      "name": "bytes32ToAddress",
      "outputs": [
        {
          "internalType": "address",
          "name": "",
          "type": "address"
        }
      ],
      "stateMutability": "pure",
      "type": "function"
    },
    {
      "inputs": [
        {
          "components": [
            {
              "internalType": "uint256",
              "name": "index",
              "type": "uint256"
            },
            {
              "internalType": "uint256",
              "name": "timestamp",
              "type": "uint256"
            },
            {
              "internalType": "bytes32",
              "name": "txHash",
              "type": "bytes32"
            },
            {
              "internalType": "uint256",
              "name": "blockNumber",
              "type": "uint256"
            },
            {
              "internalType": "bytes32",
              "name": "blockHash",
              "type": "bytes32"
            },
            {
              "internalType": "address",
              "name": "source",
              "type": "address"
            },
            {
              "internalType": "bytes32[]",
              "name": "topics",
              "type": "bytes32[]"
            },
            {
              "internalType": "bytes",
              "name": "data",
              "type": "bytes"
            }
          ],
          "internalType": "struct Log",
          "name": "log",
          "type": "tuple"
        },
        {
          "internalType": "bytes",
          "name": "",
          "type": "bytes"
        }
      ],
      "name": "checkLog",
      "outputs": [
        {
          "internalType": "bool",
          "name": "upkeepNeeded",
          "type": "bool"
        },
        {
          "internalType": "bytes",
          "name": "performData",
          "type": "bytes"
        }
      ],
      "stateMutability": "pure",
      "type": "function"
    },
    {
      "inputs": [],
      "name": "endpoint",
      "outputs": [
        {
          "internalType": "contract ILayerZeroEndpointV2",
          "name": "",
          "type": "address"
        }
      ],
      "stateMutability": "view",
      "type": "function"
    },
    {
      "inputs": [
        {
          "components": [
            {
              "internalType": "uint32",
              "name": "srcEid",
              "type": "uint32"
            },
            {
              "internalType": "bytes32",
              "name": "sender",
              "type": "bytes32"
            },
            {
              "internalType": "uint64",
              "name": "nonce",
              "type": "uint64"
            }
          ],
          "internalType": "struct Origin",
          "name": "",
          "type": "tuple"
        },
        {
          "internalType": "bytes",
          "name": "",
          "type": "bytes"
        },
        {
          "internalType": "address",
          "name": "_sender",
          "type": "address"
        }
      ],
      "name": "isComposeMsgSender",
      "outputs": [
        {
          "internalType": "bool",
          "name": "",
          "type": "bool"
        }
      ],
      "stateMutability": "view",
      "type": "function"
    },
    {
      "inputs": [
        {
          "components": [
            {
              "internalType": "uint32",
              "name": "srcEid",
              "type": "uint32"
            },
            {
              "internalType": "bytes32",
              "name": "sender",
              "type": "bytes32"
            },
            {
              "internalType": "uint64",
              "name": "nonce",
              "type": "uint64"
            }
          ],
          "internalType": "struct Origin",
          "name": "_origin",
          "type": "tuple"
        },
        {
          "internalType": "bytes32",
          "name": "_guid",
          "type": "bytes32"
        },
        {
          "internalType": "bytes",
          "name": "_message",
          "type": "bytes"
        },
        {
          "internalType": "address",
          "name": "_executor",
          "type": "address"
        },
        {
          "internalType": "bytes",
          "name": "_extraData",
          "type": "bytes"
        }
      ],
      "name": "lzReceive",
      "outputs": [],
      "stateMutability": "payable",
      "type": "function"
    },
    {
      "inputs": [
        {
          "internalType": "uint32",
          "name": "",
          "type": "uint32"
        },
        {
          "internalType": "bytes32",
          "name": "",
          "type": "bytes32"
        }
      ],
      "name": "nextNonce",
      "outputs": [
        {
          "internalType": "uint64",
          "name": "nonce",
          "type": "uint64"
        }
      ],
      "stateMutability": "view",
      "type": "function"
    },
    {
      "inputs": [],
      "name": "oAppVersion",
      "outputs": [
        {
          "internalType": "uint64",
          "name": "senderVersion",
          "type": "uint64"
        },
        {
          "internalType": "uint64",
          "name": "receiverVersion",
          "type": "uint64"
        }
      ],
      "stateMutability": "pure",
      "type": "function"
    },
    {
      "inputs": [],
      "name": "owner",
      "outputs": [
        {
          "internalType": "address",
          "name": "",
          "type": "address"
        }
      ],
      "stateMutability": "view",
      "type": "function"
    },
    {
      "inputs": [
        {
          "internalType": "uint32",
          "name": "eid",
          "type": "uint32"
        }
      ],
      "name": "peers",
      "outputs": [
        {
          "internalType": "bytes32",
          "name": "peer",
          "type": "bytes32"
        }
      ],
      "stateMutability": "view",
      "type": "function"
    },
    {
      "inputs": [
        {
          "internalType": "bytes",
          "name": "performData",
          "type": "bytes"
        }
      ],
      "name": "performUpkeep",
      "outputs": [],
      "stateMutability": "nonpayable",
      "type": "function"
    },
    {
      "inputs": [],
      "name": "renounceOwnership",
      "outputs": [],
      "stateMutability": "nonpayable",
      "type": "function"
    },
    {
      "inputs": [],
      "name": "s_router",
      "outputs": [
        {
          "internalType": "contract IRouterClient",
          "name": "",
          "type": "address"
        }
      ],
      "stateMutability": "view",
      "type": "function"
    },
    {
      "inputs": [],
      "name": "s_usdcToken",
      "outputs": [
        {
          "internalType": "address",
          "name": "",
          "type": "address"
        }
      ],
      "stateMutability": "view",
      "type": "function"
    },
    {
      "inputs": [
        {
          "internalType": "address",
          "name": "_delegate",
          "type": "address"
        }
      ],
      "name": "setDelegate",
      "outputs": [],
      "stateMutability": "nonpayable",
      "type": "function"
    },
    {
      "inputs": [
        {
          "internalType": "uint128",
          "name": "_gas",
          "type": "uint128"
        }
      ],
      "name": "setOptions",
      "outputs": [],
      "stateMutability": "nonpayable",
      "type": "function"
    },
    {
      "inputs": [
        {
          "internalType": "uint32",
          "name": "_eid",
          "type": "uint32"
        },
        {
          "internalType": "bytes32",
          "name": "_peer",
          "type": "bytes32"
        }
      ],
      "name": "setPeer",
      "outputs": [],
      "stateMutability": "nonpayable",
      "type": "function"
    },
    {
      "inputs": [
        {
          "internalType": "address",
          "name": "newOwner",
          "type": "address"
        }
      ],
      "name": "transferOwnership",
      "outputs": [],
      "stateMutability": "nonpayable",
      "type": "function"
    },
    {
      "inputs": [
        {
          "internalType": "address",
          "name": "_beneficiary",
          "type": "address"
        }
      ],
      "name": "withdraw",
      "outputs": [],
      "stateMutability": "nonpayable",
      "type": "function"
    },
    {
      "inputs": [
        {
          "internalType": "address",
          "name": "_beneficiary",
          "type": "address"
        },
        {
          "internalType": "address",
          "name": "_token",
          "type": "address"
        }
      ],
      "name": "withdrawToken",
      "outputs": [],
      "stateMutability": "nonpayable",
      "type": "function"
    },
    {
      "stateMutability": "payable",
      "type": "receive"
    }
  ],
  "bytecode": "0x60a06040523462000173576060620022cb80380380916200002082620001a0565b60a0391262000173576200003362000221565b6200003d62000238565b620000476200024f565b90620000533362000411565b6001600160a01b03928316608052331562000178576080516001600160a01b031692833b15620001735760405163ca5eb5e160e01b8152336004820152936000908590602490829084905af19182156200016d576200011a94620000f8936200014f575b50620000d6620000d0620000ca62000477565b62000496565b620002fe565b60038054919092166001600160a01b03166001600160a01b0319909116179055565b600480546001600160a01b0319166001600160a01b0392909216919091179055565b604051611c789081620006538239608051818181610242015281816107a40152818161097001528181610c3c01526117c80152f35b806200015f6200016692620001cd565b80620003f9565b38620000b7565b62000405565b600080fd5b604051632d618d8160e21b8152600490fd5b634e487b7160e01b600052604160045260246000fd5b60a0601f91909101601f19168101906001600160401b03821190821017620001c757604052565b6200018a565b6001600160401b038111620001c757604052565b604081019081106001600160401b03821117620001c757604052565b601f909101601f19168101906001600160401b03821190821017620001c757604052565b60a051906001600160a01b03821682036200017357565b60c051906001600160a01b03821682036200017357565b60e051906001600160a01b03821682036200017357565b90600182811c9216801562000298575b60208310146200028257565b634e487b7160e01b600052602260045260246000fd5b91607f169162000276565b601f8111620002b0575050565b60009060026000526020600020906020601f850160051c83019410620002f3575b601f0160051c01915b828110620002e757505050565b818155600101620002da565b9092508290620002d1565b80519091906001600160401b038111620001c7576200032a816200032460025462000266565b620002a3565b602080601f8311600114620003715750819062000360939460009262000365575b50508160011b916000199060031b1c19161790565b600255565b0151905038806200034b565b6002600052601f198316949091907f405787fa12a823e0f2b7631cc41b3ba8828b3321ca811111fa75cd3aa3bb5ace926000905b878210620003e0575050836001959610620003c6575b505050811b01600255565b015160001960f88460031b161c19169055388080620003bb565b80600185968294968601518155019501930190620003a5565b60009103126200017357565b6040513d6000823e3d90fd5b6001600160a01b039081169081156200045e576000548260018060a01b0319821617600055167f8be0079c531659141344cd1fd0a4f28419497f9722a3daafe3b4186f6b6457e0600080a3565b604051631e4fbdf760e01b815260006004820152602490fd5b604051600360f01b6020820152600281526200049381620001e1565b90565b61ffff90600382620004a8836200058e565b16036200056a57604051613d0960861b60208201526010815290620004cd82620001e1565b600383620004db836200058e565b1603620005465781518381116200052757831660010192831162000521576200051262000493926040519485936020850162000611565b03601f198101835282620001fd565b62000578565b604490604051906306dfcc6560e41b8252601060048301526024820152fd5b82620005546024926200058e565b604051633a51740d60e01b815291166004820152fd5b90620005546024926200058e565b634e487b7160e01b600052601160045260246000fd5b60028151106200059f576002015190565b60405162461bcd60e51b815260206004820152601460248201527f746f55696e7431365f6f75744f66426f756e64730000000000000000000000006044820152606490fd5b9081519160005b838110620005fd575050016000815290565b8060208092840101518185015201620005eb565b9162000625620004939493600493620005e4565b600160f81b80825260f09290921b6001600160f01b031916600182015260038101919091520190620005e456fe6080604052600436101561001b575b361561001957600080fd5b005b60003560e01c806313137d651461018b57806317442b70146101865780633400288b146101815780633aeac4e11461017c57806340691db4146101775780634585e33b146101725780634fdb1ace1461016d57806351cff8d9146101685780635ced058e146101635780635e280f111461015e578063715018a6146101595780637d25a05e1461015457806382413eac1461014f57806382c947b71461014a5780638da5cb5b146101455780639dade75014610140578063a48528731461013b578063b6d80f5114610136578063bb0b6a5314610131578063ca5eb5e11461012c578063e16e632c14610127578063f2fde38b146101225763ff7bd03d0361000e57610d61565b610cd5565b610cac565b610c0b565b610bd0565b610b1c565b610aff565b610adc565b610ab3565b610a82565b610a24565b6109fd565b61099f565b61095a565b610933565b6108b9565b610890565b610644565b6105c9565b61039c565b610315565b6102e5565b6101e4565b60609060031901126101a157600490565b600080fd5b9181601f840112156101a1578235916001600160401b0383116101a157602083818601950101116101a157565b6001600160a01b038116036101a157565b60e03660031901126101a1576101f936610190565b6001600160401b036084358181116101a1576102199036906004016101a6565b9161022560a4356101d3565b60c4359081116101a15761023d9036906004016101a6565b5050337f00000000000000000000000000000000000000000000000000000000000000006001600160a01b0316036102cd5761028061027b84610da7565b61124f565b92602081013580940361029757610019935061126f565b6102a18491610da7565b60405163309afaf360e21b815263ffffffff9190911660048201526024810191909152604490fd5b0390fd5b6040516391ac5e4f60e01b8152336004820152602490fd5b346101a15760003660031901126101a157604080516001815260026020820152f35b63ffffffff8116036101a157565b346101a15760403660031901126101a1577f238399d427b947898edb290f5ff0f9109849b1c3ba196a42e35f00c50a54b98b60043561035381610307565b6024359061035f611324565b63ffffffff8116600052600160205281604060002055610397604051928392836020909392919363ffffffff60408201951681520152565b0390a1005b346101a15760403660031901126101a1576004356103b9816101d3565b6024356103c5816101d3565b6103cd611324565b6040516370a0823160e01b81523060048201526001600160a01b039190911691602082602481865afa91821561045857600092610427575b5081156104155761001992611350565b6040516354ac509760e01b8152600490fd5b61044a91925060203d602011610451575b61044281836104c9565b810190610db1565b9038610405565b503d610438565b610dc0565b634e487b7160e01b600052604160045260246000fd5b604081019081106001600160401b0382111761048e57604052565b61045d565b60a081019081106001600160401b0382111761048e57604052565b602081019081106001600160401b0382111761048e57604052565b90601f801991011681019081106001600160401b0382111761048e57604052565b604051906104f782610493565b565b604051906104f782610473565b604051906104f7826104ae565b6001600160401b03811161048e57601f01601f191660200190565b92919261053a82610513565b9161054860405193846104c9565b8294818452818301116101a1578281602093846000960137010152565b60005b8381106105785750506000910152565b8181015183820152602001610568565b906020916105a181518092818552858086019101610565565b601f01601f1916010190565b6040906105c69392151581528160208201520190610588565b90565b346101a1576003196040368201126101a1576004356001600160401b03918282116101a1576101009082360301126101a1576024359182116101a157366023830112156101a15761062761063092369060248160040135910161052e565b50600401610dcc565b90610640604051928392836105ad565b0390f35b346101a1576020806003193601126101a15760049081356001600160401b0381116101a15761067961068191369085016101a6565b810190610e1e565b505086546001600160a01b0397948816969391506106a89088165b6001600160a01b031690565b60408051636eb1769f60e11b81526001600160a01b0389168782019081523060208201529198918690829081908c0103818d87165afa8015610458578591600091610873575b50106108635791610707848a9361070d96953091611398565b166113da565b50835181810184815261072e9082906020015b03601f1981018352826104c9565b61073f610739610eac565b82611769565b805147811161083e5750916107a0969160809493519061075d6111fd565b6107656104ea565b619ce18152938401528783015261077a610eac565b606083015260008583015286518098819582946302637a4560e41b845230918401610fea565b03927f0000000000000000000000000000000000000000000000000000000000000000165af1918215610458577f1009c68dccd51a01e16475b272077cd1ca33ba76f99484722d0525c23a0d9098936103979361080f575b5051908152619ce160208201529081906040820190565b6108309060803d608011610837575b61082881836104c9565b810190610f98565b50386107f8565b503d61081e565b865163242c5d3f60e21b81524781870190815260208101929092529081906040010390fd5b8751635f90994760e11b81528690fd5b61088a9150873d89116104515761044281836104c9565b386106ee565b346101a15760003660031901126101a1576004546040516001600160a01b039091168152602090f35b346101a15760203660031901126101a1576004356108d6816101d3565b6108de611324565b478015610415576000918280808085855af16108f861106b565b5015610902578280f35b604051630433adeb60e01b81523360048201526001600160a01b039190911660248201526044810191909152606490fd5b346101a15760203660031901126101a1576040516004356001600160a01b03168152602090f35b346101a15760003660031901126101a1576040517f00000000000000000000000000000000000000000000000000000000000000006001600160a01b03168152602090f35b346101a1576000806003193601126109fa576109b9611324565b80546001600160a01b03198116825581906001600160a01b03167f8be0079c531659141344cd1fd0a4f28419497f9722a3daafe3b4186f6b6457e08280a380f35b80fd5b346101a15760403660031901126101a157610a19600435610307565b602060405160008152f35b346101a15760a03660031901126101a157610a3e36610190565b506064356001600160401b0381116101a157610a5e9036906004016101a6565b50506020608435610a6e816101d3565b6040516001600160a01b0390911630148152f35b346101a15760203660031901126101a1576020600435610aa1816101d3565b6040516001600160a01b039091168152f35b346101a15760003660031901126101a1576000546040516001600160a01b039091168152602090f35b346101a15760003660031901126101a157602060405167de41ba4fc9d91ad98152f35b346101a15760003660031901126101a1576020604051619ce18152f35b346101a15760203660031901126101a1576004356001600160801b03811681036101a157610b48611324565b604051600360f01b60208201526002815290610b6382610473565b61ffff600381610b7285611a5f565b1603610bae57610019610ba98385604051916001600160801b03199060801b16602083015260108252610ba482610473565b611b00565b61110d565b602490610bba84611a5f565b604051633a51740d60e01b815291166004820152fd5b346101a15760203660031901126101a15763ffffffff600435610bf281610307565b1660005260016020526020604060002054604051908152f35b346101a157600060203660031901126109fa57600435610c2a816101d3565b610c32611324565b6001600160a01b037f0000000000000000000000000000000000000000000000000000000000000000811691839190833b15610ca85760249083604051958694859363ca5eb5e160e01b85521660048401525af1801561045857610c94575080f35b6001600160401b03811161048e5760405280f35b8280fd5b346101a15760003660031901126101a1576003546040516001600160a01b039091168152602090f35b346101a15760203660031901126101a157600435610cf2816101d3565b610cfa611324565b6001600160a01b039081168015610d4857600080546001600160a01b03198116831782559092167f8be0079c531659141344cd1fd0a4f28419497f9722a3daafe3b4186f6b6457e08380a380f35b604051631e4fbdf760e01b815260006004820152602490fd5b346101a15760603660031901126101a1576020610d7d36610190565b63ffffffff8135610d8d81610307565b166000526001825260406000205482604051920135148152f35b356105c681610307565b908160209103126101a1575190565b6040513d6000823e3d90fd5b9060019160e081013590601e19813603018212156101a157018035906001600160401b0382116101a15760200181360381136101a1576105c691369161052e565b6001600160401b038116036101a157565b908160e09103126101a1578035916020820135610e3a816101d3565b916040810135610e49816101d3565b916060820135916080810135610e5e81610307565b9160c060a08301359201356105c681610e0d565b90600182811c92168015610ea2575b6020831014610e8c57565b634e487b7160e01b600052602260045260246000fd5b91607f1691610e81565b6040519060008260025491610ec083610e72565b80835292602090600190818116908115610f4c5750600114610eeb575b50506104f7925003836104c9565b91509260026000527f405787fa12a823e0f2b7631cc41b3ba8828b3321ca811111fa75cd3aa3bb5ace936000925b828410610f3457506104f79450505081016020013880610edd565b85548885018301529485019487945092810192610f19565b915050602092506104f794915060ff191682840152151560051b8201013880610edd565b91908260409103126101a157604051610f8881610473565b6020808294805184520151910152565b6080818303126101a15760405191606083018381106001600160401b0382111761048e57610fe2926040918252805185526020810151610fd781610e0d565b602086015201610f70565b604082015290565b906020909392936040835263ffffffff8151166040840152818101516060840152608061103e611028604084015160a08488015260e0870190610588565b6060840151868203603f190160a0880152610588565b910151151560c08401526001600160a01b03909416910152565b60405190611065826104ae565b60008252565b3d15611096573d9061107c82610513565b9161108a60405193846104c9565b82523d6000602084013e565b606090565b601f81116110a7575050565b60009060026000527f405787fa12a823e0f2b7631cc41b3ba8828b3321ca811111fa75cd3aa3bb5ace906020601f850160051c83019410611103575b601f0160051c01915b8281106110f857505050565b8181556001016110ec565b90925082906110e3565b9081516001600160401b03811161048e576111328161112d600254610e72565b61109b565b602080601f831160011461117557508190611165939460009261116a575b50508160011b916000199060031b1c19161790565b600255565b015190503880611150565b90601f198316946111a860026000527f405787fa12a823e0f2b7631cc41b3ba8828b3321ca811111fa75cd3aa3bb5ace90565b926000905b8782106111e55750508360019596106111cc575b505050811b01600255565b015160001960f88460031b161c191690553880806111c1565b806001859682949686015181550195019301906111ad565b619ce1600081905260016020527f3d84927861c505bc2c9219a8249bfe688f929cd4e8b032c159daa62ce1a4db5854908115611237575090565b6024906040519063f6ff4fb760e01b82526004820152fd5b63ffffffff16806000526001602052604060002054908115611237575090565b9181608091810103126101a1577f6f49d647cac89c64aabc9971647c3c96d048d5a2f691e4b954d9c370995aaf62916001600160401b038260208060e0950135936112b9856101d3565b63ffffffff6040840135936112cd856101d3565b8235906060906001600160a01b036112e484610307565b6040860135976112f389610e0d565b816040519b84358d5216888c01521660408a015201356060880152166080860152013560a08401521660c0820152a1565b6000546001600160a01b0316330361133857565b60405163118cdaa760e01b8152336004820152602490fd5b60405163a9059cbb60e01b60208201526001600160a01b03909216602483015260448201929092526104f79161139382606481015b03601f1981018452836104c9565b61182b565b6040516323b872dd60e01b60208201526001600160a01b03928316602482015292909116604483015260648201929092526104f7916113938260848101611385565b906001600160a01b03821615611645576113f48183611964565b60035490929061140c906001600160a01b031661069c565b604051906320487ded60e01b825260209460049186848061142f85878301611657565b0381845afa93841561045857600094611626575b5047841161160057868661149a9261146761069c61069c885460018060a01b031690565b90600060405180968195829463095ea7b360e01b84528b840160209093929193604081019460018060a01b031681520152565b03925af1801561045857849288926114e3926115d3575b506003546114c7906001600160a01b031661069c565b906040519485809481936396f4e9f960e01b8352898301611657565b03925af195861561045857600096611578575b50505467de41ba4fc9d91ad99385937fc15fb748c32ba4eb29c1c311e78533f93b4425eab49ea87c6fe4279ecadca0439391929091611572916001600160a01b03165b604080516001600160a01b03958616815294909116602085015283019390935260006060830152608082019290925290819060a0820190565b0390a390565b61153996507fc15fb748c32ba4eb29c1c311e78533f93b4425eab49ea87c6fe4279ecadca043936115c567de41ba4fc9d91ad9979496938361157294903d106104515761044281836104c9565b9750935081949295506114f6565b6115f290843d86116115f9575b6115ea81836104c9565b810190611724565b50386114b1565b503d6115e0565b5050604080516376cf9cbf60e11b81524792810192835260208301939093528291010390fd5b61163e919450873d89116104515761044281836104c9565b9238611443565b604051631a841e6160e11b8152600490fd5b919091604067de41ba4fc9d91ad98252602091604083820152611686855160a0604084015260e0830190610588565b916116a28487015193603f199485858303016060860152610588565b604087015194848483030160808501528080875193848152019601926000905b8382106116fb5750505060608701516001600160a01b031660a08401525093946105c6945060c090608001519282850301910152610588565b845180516001600160a01b031689528301518884015296870196938201936001909101906116c2565b908160209103126101a1575180151581036101a15790565b6040519061174982610473565b60006020838281520152565b906040828203126101a1576105c691610f70565b6117c49061177561173c565b5061177e6111fd565b604093849283519261178f84610493565b619ce18452602084015283830152606082015260006080820152815180938192631bb8518b60e31b8352309060048401610fea565b03817f00000000000000000000000000000000000000000000000000000000000000006001600160a01b03165afa9182156104585760009261180557505090565b6105c69250803d10611824575b61181c81836104c9565b810190611755565b503d611812565b604051611889916001600160a01b031661184482610473565b6000806020958685527f5361666545524332303a206c6f772d6c6576656c2063616c6c206661696c656487860152868151910182855af161188361106b565b91611ba9565b8051908161189657505050565b82806118a6938301019101611724565b156118ae5750565b6084906040519062461bcd60e51b82526004820152602a60248201527f5361666545524332303a204552433230206f7065726174696f6e20646964206e6044820152691bdd081cdd58d8d9595960b21b6064820152fd5b6040519061191282610473565b600182528160005b6020908181101561193c5760209161193061173c565b9082850101520161191a565b505050565b80511561194e5760200190565b634e487b7160e01b600052603260045260246000fd5b9060006080611a0d6119ff9460405161197c81610493565b60609381858093528260208201528260408201528683820152015261199f611905565b6004549095906001600160a01b0316906119c96119ba6104f9565b6001600160a01b039093168352565b60208201526119d786611941565b526119e185611941565b50604080516001600160a01b03909216602083015290958691820190565b03601f1981018652856104c9565b611a20611a18610506565b838152611b72565b92611a296104ea565b948552611a34611058565b60208601526040850152830152608082015290565b634e487b7160e01b600052601160045260246000fd5b6002815110611a6f576002015190565b60405162461bcd60e51b8152602060048201526014602482015273746f55696e7431365f6f75744f66426f756e647360601b6044820152606490fd5b602090611ac2600495949382815194859201610565565b600160f81b910181815260f09290921b6001600160f01b03191660018301526003820152815191611afb90839085840190602001610565565b010190565b9061ffff91600383611b1183611a5f565b1603611b66578151838111611b47578316600101928311611b42576107206105c69260405194859360208501611aab565b611a49565b604490604051906306dfcc6560e41b8252601060048301526024820152fd5b82610bba602492611a5f565b604051906397a657c960e01b602083015251602482015260248152606081018181106001600160401b0382111761048e5760405290565b91929015611c0b5750815115611bbd575090565b3b15611bc65790565b60405162461bcd60e51b815260206004820152601d60248201527f416464726573733a2063616c6c20746f206e6f6e2d636f6e74726163740000006044820152606490fd5b825190915015611c1e5750805190602001fd5b60405162461bcd60e51b8152602060048201529081906102c990602483019061058856fea2646970667358221220fdbf3ea71590164a0c552b84212add8e8e64c5480fb4418b065bab5c9baab88c64736f6c63430008180033",
  "linkReferences": {},
  "deployedLinkReferences": {}
}